:100000000A128A11E62FFF1B0D2883137F1883170E
:100010000008840A0319FF0A08007F087F398A0054
:0A0020000408840A0319FF0A820095
:100730001A300A128A11AD2308007808F1007908EE
:10074000F2000A128A114225080064008001840A1E
:100750000406031900340406A62BF00083160313C5
:10076000981CAE2B70088312031399000800003008
:100770000A128A1119240A128A1101300A128A11E6
:10078000192408007E088A007F088200C2230A120A
:100790008A118000840A04087D0603190034FF0AC8
:1007A0000319FE0AC62B7808F1007908F2000A1234
:1007B0008A1142250A128A110D300A128A11AD23BC
:1007C0000A128A110A300A128A11AD230800831610
:1007D0000313071387178130990018151812831215
:1007E000031398178316031398168312031318160E
:1007F0008316031318138312031318130800F00051
:10080000701C062C831203130816092C8312031381
:100810000812F01C0D2C88160E2C8812701D122C3C
:100820000817132C0813F01D172C881708008813BD
:100830000800F30083120313081173080A128A11C7
:10084000FF230A128A118312031388151A30F2004B
:10085000F830F100F10B2A2CF20B2A2C0000831245
:10086000031388110800F430F8008830F9000A12E8
:100870008A11D3230A128A113330FC00BB30FB00EB
:10088000DF30FA00FA0B422CFB0B422CFC0B422C03
:10089000492C3030F8008830F9000A128A11D3232D
:1008A0000A128A113330FC00BB30FB00DF30FA0043
:1008B000FA0B582CFB0B582CFC0B582C5F2C080007
:1008C000FB00EA30F1008830F2000A128A1142255A
:1008D0000A128A117B08F1000030F2000A128A1114
:1008E00042250A128A11F230F1008830F2000A1211
:1008F0008A1142250A128A110D300A128A11AD237B
:100900000A128A113330FA00BB30F900DF30F800E8
:10091000F80B882CF90B882CFA0B882C8F2C0800EC
:10092000F40074080F39F1007108F2007408F0390E
:10093000F1007108F3008312031308157308F10026
:1009400004300310F10CFF3E031DA12C71080A12A4
:100950008A11FF230A128A11831203138815423069
:10096000F100F10BB12C00008312031388117208FF
:100970000A128A11FF230A128A118312031388159F
:100980004230F100F10BC22C0000831203138811D6
:10099000080039343634303430343034383432347A
:1009A000333434343234003400340034003400340E
:1009B00000340034003400340034373438343734F1
:1009C0003134303433343434353432343134003427
:1009D0000034003400340034003400340034003477
:1009E00000343734333433343834393439343034F0
:1009F00039343834393400340034003400340034AD
:100A000000340034003400340034FA01FB017A0869
:100A10007507F8007608F7000318F70AFA1BF703C2
:100A20007708F900790883120313FF00780884001F
:100A30000A128A1103200A128A11003A03190800C7
:100A40007A087507F8007608F7000318F70AFA1B0A
:100A5000F7037708F900790883120313FF00780879
:100A600084000A128A1103200A128A110A128A11BA
:100A700090240A128A110130FA070318FB0A003089
:100A8000FB07072DF601F70176087107F4007208DD
:100A9000F3000318F30AF61BF3037308F500750857
:100AA00083120313FF00740884000A128A110320C2
:100AB0000A128A11003A0319080076087107F40037
:100AC0007208F3000318F30AF61BF3037308F5002A
:100AD000750883120313FF00740884000A128A1138
:100AE00003200A128A110A128A11AD230A128A11EE
:100AF0000130F6070318F70A0030F707442DF70016
:100B00007703031DA42D74087F3EF5007508FA00D5
:100B10007A08F50004300310F50CFF3E031D8B2D01
:100B20007508F6007608F8007A080F39F5007508A0
:100B3000F90078080A128A1119240A128A11790810
:100B40000A128A111924080002307706031D0800D2
:100B50007408BF3EF5007508FA007A08F500043005
:100B60000310F50CFF3E031DB02D7508F600760846
:100B7000F8007A080F39F5007508F90078080A12AC
:100B80008A1119240A128A1179080A128A11192461
:100B9000080000300A128A11FF230A128A118230DB
:100BA000F500DD30F400F40BD32DF50BD32DD82D4B
:100BB00003300A128A1119240A128A112130F50011
:100BC0007630F400F40BE22DF50BE22D000003303B
:100BD0000A128A1119240A128A114830F5006C3061
:100BE000F400F40BF12DF50BF12D000003300A1287
:100BF0008A1119240A128A1102300A128A11192440
:100C00000A128A1102300A128A1119240A128A1150
:100C100008300A128A1119240A128A1100300A12A5
:100C20008A1119240A128A110C300A128A11192405
:100C30000A128A1100300A128A1119240A128A1122
:100C400006300A128A11192408008316031388013A
:100C5000061286160A128A11C9250A128A110A1268
:100C60008A11E7230A128A110A128A11B7230A127B
:100C70008A11F401F40A01300A128A117F250A123E
:100C80008A119730F5008830F6000A128A1105257E
:100C90000A128A11F401F40A02300A128A117F251D
:100CA0000A128A118630F5008830F6000A128A117D
:100CB00005250A128A111A3083120313DE005E30F2
:100CC000DD006D30DC00DC0B632EDD0B632EDE0BF4
:100CD000632E6A2EF401F40A01300A128A117F256C
:100CE0000A128A11B930F5008830F6000A128A110A
:100CF00005250A128A11F401F40A02300A128A1137
:100D00007F250A128A114230F5008830F6000A1257
:100D10008A1105250A128A110A128A1133240A122D
:100D20008A110A128A11B7230A128A118312031335
:100D30000612831203130612861A992EF401F40A7E
:100D400001300A128A117F250A128A116430F500D7
:100D50008830F6000A128A1105250A128A110D3010
:100D600083120313DE00AF30DD00B530DC00DC0B96
:100D7000B72EDD0BB72EDE0BB72EBE2EF401F40A14
:100D800001300A128A117F250A128A117530F50086
:100D90008830F6000A128A1105250A128A110D30D0
:100DA00083120313DE00AF30DD00B530DC00DC0B56
:100DB000D72EDD0BD72EDE0BD72EDE2EF401F40A54
:100DC00001300A128A117F250A128A11A830F50013
:100DD0008830F6000A128A1105250A128A11F401D8
:100DE000F40A02300A128A117F250A128A1142304F
:100DF000F5008830F6000A128A1105250A128A11B8
:100E00001A3083120313DE005E30DD006D30DC002B
:100E1000DC0B082FDD0B082FDE0B082F0F2FF40142
:100E2000F40A01300A128A117F250A128A11DA3077
:100E3000F5008830F6000A128A1105250A128A1177
:100E4000F401F40A02300A128A117F250A128A116B
:100E5000CA30F5008830F6000A128A1105250A12F8
:100E60008A1148300A128A1160240A128A1100304D
:100E7000F8008830F9000A128A119D230A128A119B
:100E80001A3083120313DE005E30DD006D30DC00AB
:100E9000DC0B482FDD0B482FDE0B482F4F2F0A129B
:100EA0008A1198230A128A1134300A128A11602496
:100EB0000A128A110030F8008830F9000A128A11EB
:100EC0009D230A128A111A3083120313DE005E304A
:100ED000DD006D30DC00DC0B6B2FDD0B6B2FDE0BD0
:100EE0006B2F722F0A128A1198230A128A1120304E
:100EF0000A128A1160240A128A110030F800883020
:100F0000F9000A128A119D230A128A111A308312DB
:100F10000313DE005E30DD006D30DC00DC0B8E2F55
:100F2000DD0B8E2FDE0B8E2F952F0A128A11982340
:100F30000A128A110A128A11B7230A128A11F401BD
:100F4000F40A01300A128A117F250A128A115330DD
:100F5000F5008830F6000A128A1105250A128A1156
:100F6000F401F40A02300A128A117F250A128A114A
:100F70004230F5008830F6000A128A1105250A125F
:100F80008A11333083120313DE00BB30DD00DF3003
:100F9000DC00DC0BC92FDD0BC92FDE0BC92F0A12B9
:100FA0008A11B7230A128A118312031306163330EB
:100FB00083120313DE00BB30DD00DF30DC00DC0B0E
:100FC000DF2FDD0BDF2FDE0BDF2F992E83135C303D
:100FD000FD000430FE00C930FF00203084000A12FA
:100FE0008A11C6230A128A11A0308400D2300A1254
:100FF0008A11A523DF01E00183010A128A11252E3F
:1010000045344D3445345234473445344E344334FA
:101010005934203455345234473445344E345434E2
:101020000D344C344134543420343A342034313487
:1010300032342E343534323420344E340D344C3482
:101040004F344E3420343A342034383430342E3453
:10105000313433342034453420340D340A340034F0
:10106000413454342B3443344E344D3449343D34BC
:1010700032342C3432342C3430342C3430342C345C
:1010800030340034203420342034203420342034D0
:1010900020342034203420342034203420342034B0
:1010A00020342034003420342034203420342034C0
:1010B000483445344C3450342034213421342134E4
:1010C00020342034203400342034473465347434E0
:1010D000743469346E3467342034473450345334B4
:1010E0002E34203420342034003420344734653406
:1010F0007434743469346E34673420344734503473
:1011000053342E342E342034203400342034203410
:1011100041346C346534723474342034733479342B
:101120007334743465346D34203420340034203406
:10113000203457346F346D3465346E342034733456
:1011400061346634653474347934203420340034A6
:101150002034473465347434743469346E346734FD
:1011600020344734503453342E342E342E3420342B
:101170000034203420344D34653473347334613496
:1011800067346534203473346534743475347034A2
:10119000203400344C344F344E3420343A3420342C
:1011A000383430342E343134333420344534203420
:1011B000203400344C344134543420343A34203414
:1011C000313432342E343534323420344E342034F9
:1011D00020340034413454342B3443344D344734B8
:1011E00053343D3422340034413454342B344334AA
:0C11F0004D34473446343D343134003473
:02400E003A3F37
:00000001FF
