:100000000A128A11E32FFF1B0D2883137F18831711
:100010000008840A0319FF0A080000308A00040857
:10002000840A8207003420342034203420342034E1
:100030002034203420342034203420342034203420
:100040002034203420340034203420342034203430
:10005000203420345234463449344434203420345B
:1000600020342034203420340034203420345334DD
:1000700048344F34573420344934443420344334E2
:100080004134523444342034203400342034203479
:100090002034493444342034203420344E34553410
:1000A0004D3442344534523420342034003420342A
:1000B00020342034203441347434743465346E3444
:1000C000643465346E346334653420342034003451
:1000D000203420344D3465347334733461346734E0
:1000E000653420347334653474347534703420349A
:1000F00000342034203420342034503472346534B9
:10010000733465346E347434203420342034203415
:10011000003420342034203453347434753464343F
:1001200065346E3474342034313420342034203437
:10013000003420342034203453347434753464341F
:1001400065346E3474342034323420342034203416
:02015000003479
:1008AC0083120313981C5C2C181218168C1E5C2CCB
:1008BC001A08080000300A128A11BE240A128A1182
:1008CC0001300A128A11BE2408007E088A007F08B3
:1008DC0082006B240A128A118000840A04087D06A7
:1008EC0003190034FF0A0319FE0A6F2C8316031335
:1008FC0007138717813099001815181283120313E8
:10090C0098178316031398168312031318160800EE
:10091C003034303430343434323436343334333499
:10092C0038343834003430343034303434343234B5
:10093C00363433343134323436340034F000701CF5
:10094C00AB2C831203130816AE2C8312031308125C
:10095C00F01CB22C8816B32C8812701DB72C0817FB
:10096C00B82C0813F01DBC2C88170800881308003D
:10097C00F30083120313081173080A128A11A424BA
:10098C000A128A118312031388151A30F200F830F8
:10099C00F100F10BCF2CF20BCF2C000083120313C0
:1009AC0088110800F500E22C0130F2007208F507FE
:1009BC000130F2007208F0077508840083130008F8
:1009CC00F200700884000003FF3A7207F30073080A
:1009DC00F4007408031DF72C750884000008031D2F
:1009EC00DA2C7408F000F101F01BF10308008312FB
:1009FC000313D0010F305002031808000A128A1199
:100A0C0056240A128A11F0007008FD000D307D0684
:100A1C000319232D0A307D060319232D7D08F000C0
:100A2C00831203135008513E840070088313800016
:100A3C000130F0007008D007252D513008000F3020
:100A4C0083120313012DF40074080F39F10071089F
:100A5C00F2007408F039F1007108F30083120313EB
:100A6C0008157308F10004300310F10CFF3E031D50
:100A7C003A2D71080A128A11A4240A128A118312BF
:100A8C00031388154230F100F10B4A2D000083123C
:100A9C000313881172080A128A11A4240A128A11EB
:100AAC008312031388154230F100F10B5B2D00000B
:100ABC008312031388110800FA01FB017A087507E9
:100ACC00F8007608F7000318F70AFA1BF703770803
:100ADC00F900790883120313FF00780884000A12C6
:100AEC008A1103200A128A11003A031908007A08A5
:100AFC007507F8007608F7000318F70AFA1BF703D6
:100B0C007708F900790883120313FF007808840032
:100B1C000A128A1103200A128A110A128A11292533
:100B2C000A128A110130FA070318FB0A0030FB077E
:100B3C00642DF7007703031DC42D74087F3EF50068
:100B4C007508FA007A08F50004300310F50CFF3E26
:100B5C00031DAB2D7508F6007608F8007A080F39DE
:100B6C00F5007508F90078080A128A11BE240A12D9
:100B7C008A1179080A128A11BE24080002307706FD
:100B8C00031D08007408BF3EF5007508FA007A08CA
:100B9C00F50004300310F50CFF3E031DD02D750835
:100BAC00F6007608F8007A080F39F5007508F90098
:100BBC0078080A128A11BE240A128A1179080A12BC
:100BCC008A11BE24080000300A128A11A4240A12C9
:100BDC008A118230F500DD30F400F40BF32DF50BA7
:100BEC00F32DF82D03300A128A11BE240A128A1131
:100BFC002130F5007630F400F40B022EF50B022EAA
:100C0C00000003300A128A11BE240A128A114830DD
:100C1C00F5006C30F400F40B112EF50B112E0000C6
:100C2C0003300A128A11BE240A128A1102300A12E7
:100C3C008A11BE240A128A1102300A128A11BE24A9
:100C4C000A128A1108300A128A11BE240A128A1159
:100C5C0000300A128A11BE240A128A110C300A12B0
:100C6C008A11BE240A128A1100300A128A11BE247B
:100C7C000A128A1106300A128A11BE240800243086
:100C8C008400453083120313A0000408A1000B302C
:100C9C00A2002008840083130008A300A00A2108E6
:100CAC00840023088000A10AA20B4F2E2F30840051
:100CBC003A30A0000408A1000B30A20020088400E8
:100CCC0083130008A300A00A2108840023088000D5
:100CDC00A10AA20B642EDB01F030831603138600ED
:100CEC0088010A128A11E9250A128A110A128A113C
:100CFC007C240A128A11F401F40A01300A128A11B6
:100D0C009F250A128A111230F5008030F6000A1263
:100D1C008A1162250A128A11F401F40A02300A12AD
:100D2C008A119F250A128A114530F5008030F60091
:100D3C000A128A1162250A128A11333083120313A4
:100D4C00A200BB30A100DF30A000A00BAB2EA10B8A
:100D5C00AB2EA20BAB2E0A128A1160240A128A1136
:100D6C00F401F40A01300A128A119F250A128A1121
:100D7C005630F5008030F6000A128A1162250A12EC
:100D8C008A110A128A1160240A128A11831603131B
:100D9C008113831203138601F401F40A01300A1241
:100DAC008A119F250A128A112330F5008030F60033
:100DBC000A128A1162250A128A11F401F40A02300D
:100DCC000A128A119F250A128A110130F50080300F
:100DDC00F6000A128A1162250A128A110A128A1165
:100DEC00FD240A128A11003A0319CC2E0A128A1118
:100DFC0060240A128A11F401F40A01300A128A11D1
:100E0C009F250A128A113430F5008030F6000A1240
:100E1C008A1162250A128A11043083120313A0006E
:100E2C002008F40002300A128A119F250A128A1136
:100E3C005130F5000030F6000A128A1162250A12B0
:100E4C008A11333083120313A200BB30A100DF30B0
:100E5C00A000A00B2F2FA10B2F2FA20B2F2F831233
:100E6C000313D001D00A2430A0002008F000513028
:100E7C000A128A11D8240A128A11700871040319F3
:100E8C00872F8D2F06148610073083120313A200B0
:100E9C005830A1005930A000A00B522FA10B522F9B
:100EAC00A20B522F0A128A1160240A128A11F40121
:100EBC00F40A01300A128A119F250A128A1177301E
:100ECC00F5008030F6000A128A1162250A128A1186
:100EDC00F401F40A02300A128A119F250A128A11AF
:100EEC006730F5008030F6000A128A1162250A126A
:100EFC008A1183120313DB0106108610861B842FC4
:100F0C00D0018312031350080319CC2E482F2F3015
:100F1C0083120313A0002008F00051300A128A112A
:100F2C00D8240A128A11700871040319DD2FCC2EF3
:100F3C0006108614073083120313A2005830A10048
:100F4C005930A000A00BA82FA10BA82FA20BA82FE3
:100F5C000A128A1160240A128A11F401F40A01306F
:100F6C000A128A119F250A128A118730F5008030E7
:100F7C00F6000A128A1162250A128A11F401F40A87
:100F8C0002300A128A119F250A128A116730F50065
:100F9C008030F6000A128A1162250A128A11831215
:100FAC000313DB0106108610861BDA2FD001831287
:100FBC00031350080319CC2E9E2F83135030FD00C1
:100FCC000430FE008E30FF003A3084000A128A1181
:100FDC006F24D001D101D201D301D401D501D601A6
:100FEC00D701D801D901DA01FC01FD0183010A12F4
:040FFC008A11452EE3
:02400E003A3F37
:00000001FF
