:060000000A128A11122809
:10000800FE00030EF8000408F9000A08FA0083123B
:1000180003137F08FB000A128A1129280A128A1181
:100028001528FC0183132030840058300A128A11E5
:10003800B4260A128A11A0308400C8300A128A1124
:10004800B42683010A128A114B2A0C1C3E290C1073
:100058000130CC070318CD0A0030CD075F304C06BD
:100068004D04031D3E294A034B04031D7C282A30F6
:100078000A128A113C260A128A110330F7008A30C4
:10008800F6005530F500F50B4728F60B4728F70B17
:1000980047284E286730F3008030F4000A128A118E
:1000A800FD250A128A110330F7008A30F600553010
:1000B800F500F50B5D28F60B5D28F70B5D28642825
:1000C80023300A128A113C260A128A110330F700DB
:1000D8008A30F6005530F500F50B7028F60B7028BD
:1000E800F70B7028772883120313CA01CB013E2926
:1000F8002A300A128A113C260A128A110330F700A4
:100108008A30F6005530F500F50B8828F60B88285C
:10011800F70B88288F288530F3008030F4000A1206
:100128008A11FD250A128A110330F7008A30F60079
:100138005530F500F50B9E28F60B9E28F70B9E28E8
:10014800A528B430F3000030F4000A128A11FD2506
:100158000A128A110330F7008A30F6005530F5008C
:10016800F50BB428F60BB428F70BB428BB2853308A
:10017800F3000030F4000A128A11FD250A128A11D0
:100188000330F7008A30F6005530F500F50BCA2821
:10019800F60BCA28F70BCA28D1285F300A128A1131
:1001A8003C260A128A110330F7008A30F6005530CF
:1001B800F500F50BDD28F60BDD28F70BDD28E42824
:1001C8008030F3008030F4000A128A11FD250A12EB
:1001D8008A110330F7008A30F6005530F500F50B28
:1001E800F328F60BF328F70BF328FA28A030F300CE
:1001F8000030F4000A128A11FD250A128A11033010
:10020800F7008A30F6005530F500F50B0929F60B92
:100218000929F70B092910294E30F3000030F400A2
:100228000A128A11FD250A128A110330F7008A3052
:10023800F6005530F500F50B1F29F60B1F29F70BB3
:100248001F29262923300A128A113C260A128A11EC
:100258000330F7008A30F6005530F500F50B3229E7
:10026800F60B3229F70B3229392983120313CC01F3
:10027800CD0181018C1E402A8C120A128A11A126F6
:100288000A128A11F5007508FC0001308312031365
:10029800BA000030BB0042084304031D402A243042
:1002A8007C06031D5F2940084104031D5F290130B6
:1002B800C0000030C10047307C06031D6B29400395
:1002C8004104031D6B290230C0000030C1005030CA
:1002D8007C06031D7829023040064104031D782955
:1002E8000330C0000030C10052307C06031D852950
:1002F800033040064104031D85290430C000003046
:10030800C1004D307C06031D92290430400641048B
:10031800031D92290530C0000030C10043307C061F
:10032800031D9F29053040064104031D9F290630FF
:10033800C0000030C100063040064104031DB0294A
:100348002C307C06031DB0290130B8070318B90A00
:100358000030B907BA01BB01033038063904031D60
:10036800C9293A033B04031DC9297C08F5003E0846
:10037800B43E84007508831380000130BE0703185B
:10038800BF0A0030BF07BA01BB0104303806390480
:10039800031DE0293A033B04031DE0297C08F5000E
:1003A8003608533E84007508831380000130B60771
:1003B8000318B70A0030B707053038063904031D9B
:1003C800F9293A033B04031DF9297C08F5003C0888
:1003D800A03E84007508831380000130BC07031811
:1003E800BD0A0030BD07BA01BB0106303806390422
:1003F800031D102A3A033B04031D102A7C08F5004C
:1004080034084E3E84007508831380000130B40719
:100418000318B50A0030B5072A307C06031D402AA8
:1004280000303902053003193802031C402A3A0308
:100438003B04031D402A3E08B43E84008313800118
:100448003C08A03E840080013608533E84008001A9
:1004580034084E3E84008001B601B701B401B501ED
:10046800BE01BF01BC01BD01BA01BB010130C20020
:100478000030C300B801B9017B08FF007A088A0080
:1004880079088400780E8300FE0E7E0E090083161C
:1004980003138801FF30850086170617061086109B
:1004A8000611861183120313061186110610861091
:1004B8000A128A1187260A128A1128308316031312
:1004C8008100831203138101C0308B000A128A1144
:1004D80057260A128A110A128A1199240A128A11B5
:1004E8000A128A11AB260A128A110A128A11962652
:1004F8000A128A1183120313DC01DC0A01300A1282
:100508008A11FA240A128A11453083120313DD0076
:100518008030DE000A128A114C250A128A118312D1
:100528000313DC01DC0A02300A128A11FA240A12C7
:100538008A11343083120313DD008030DE000A1282
:100548008A114C250A128A114D3083120313E600D2
:100558001930E5004F30E400E40BB02AE50BB02A6F
:10056800E60BB02A0A128A1196260A128A1100305E
:100578000A128A11CA250A128A118312031359080A
:10058800C9005808C80001300A128A11CA250A127F
:100598008A11831203135908C7005808C60002308D
:1005A8000A128A11CA250A128A11831203135908DA
:1005B800C5005808C4000614861006110130490207
:1005C8002330031948020318EB2A8615EC2A8611F2
:1005D80042034304031DEC2A861B7D2B0330831240
:1005E8000313E6008A30E5005530E400E40BFA2AEC
:1005F800E50BFA2AE60BFA2A83120313861BBB2A99
:100608000130CA000030CB00061506108610DC0148
:10061800DC0A01300A128A11FA240A128A112330DC
:1006280083120313DD008030DE000A128A114C2584
:100638000A128A1183120313DC01DC0A02300A123F
:100648008A11FA240A128A11563083120313DD0024
:100658008030DE000A128A114C250A128A113330C2
:1006680083120313E600BB30E500DF30E400E40B3F
:100678003B2BE50B3B2BE60B3B2B83120313DC01D7
:10068800DC0A01300A128A11FA240A128A1112307D
:1006980083120313DD008030DE000A128A114C2514
:1006A8000A128A1183120313DC01DC0A02300A12CF
:1006B8008A11FA240A128A11013083120313DD0009
:1006C8008030DE000A128A114C250A128A11333052
:1006D80083120313E600BB30E500DF30E400E40BCF
:1006E800732BE50B732BE60B732B83120313061185
:1006F800B62A0611DC01DC0A01300A128A11FA2432
:100708000A128A117B3083120313DD008030DE0069
:100718000A128A114C250A128A1105308312031312
:10072800E4006408DC0001300A128A11FA240A1273
:100738008A11B43083120313DD000030DE000A1280
:100748008A114C250A128A11533083120313DD00D3
:100758000030DE000A128A114C250A128A1183120F
:100768000313DC01DC0A02300A128A11FA240A1285
:100778008A11763083120313DD008030DE000A12FE
:100788008A114C250A128A11053083120313E400DA
:100798006408DC0002300A128A11FA240A128A114B
:1007A800A03083120313DD000030DE000A128A1124
:1007B8004C250A128A114E3083120313DD000030D3
:1007C800DE000A128A114C250A128A1183120313B9
:0E07D80006148610C201C301C001C101BB2A74
:10080000FF1B0A2C83137F1883170008840A03191F
:10081000FF0A080004308A000408840A82070034B2
:100820002034203420342034203420342034203428
:100830002034203420342034203420342034203418
:10084000003442344F34523444344534523420342A
:10085000433452344F3453345334453444342034C5
:10086000203400344C34413454343A343134333449
:10087000303436342E3436343234343433344E3427
:100880002034203400342034533459345334203449
:100890005534533449344E344734203449344F347A
:1008A00054342034203400342034203442344F3443
:1008B0005234443445345234203441344C34453479
:1008C000523454342034203400344C344F344E34B9
:1008D0003A34303438343034393436342E343634D3
:1008E00036343034393445342034003443345234CF
:1008F0004F345334533445344434203442344F3429
:10090000523444344534523400344C344F344E3431
:100910003A3400344C34413454343A3400346C3476
:100920006F346E343A3400346C34613474343A3495
:10093000003400300A128A116F260A128A1182309E
:1009400083120313DD00DD30DC00DC0BA52CDD0B96
:10095000A52C03300A128A1120260A128A1121308E
:1009600083120313DD007530DC00DC0BB52CDD0BCE
:10097000B52CBA2C03300A128A1120260A128A11C9
:10098000483083120313DD006B30DC00DC0BC62C17
:10099000DD0BC62CCB2C03300A128A1120260A123A
:1009A0008A1102300A128A1120260A128A11023094
:1009B0000A128A1120260A128A1108300A128A1194
:1009C00020260A128A1100300A128A1120260A12E1
:1009D0008A110C300A128A1120260A128A1100305C
:1009E0000A128A1120260A128A1106300A128A1166
:1009F0002026080083120313DF005F03031D232D4D
:100A00005C087F3EDD005D08E2006208DD00043026
:100A10000310DD0CFF3E031D082D5D08DE005E089F
:100A2000E00062080F39DD005D08E10060080A128D
:100A30008A1120260A128A118312031361080A12EE
:100A40008A11202608000230831203135F06031D5B
:100A500008005C08BF3EDD005D08E2006208DD00C2
:100A600004300310DD0CFF3E031D312D5D08DE0058
:100A70005E08E00062080F39DD005D08E1006008F3
:100A80000A128A1120260A128A118312031361089E
:100A90000A128A112026080083120313E201E301DF
:100AA00062085D07E0005E08DF000318DF0AE21B52
:100AB000DF03831203135F08E1006108FF00600891
:100AC00084000A128A1100240A128A11003A0319BA
:100AD000080062085D07E0005E08DF000318DF0A17
:100AE000E21BDF03831203135F08E1006108FF00CC
:100AF000600884000A128A1100240A128A110A125C
:100B00008A118D250A128A11013083120313E2071C
:100B10000318E30A0030E307502D83120313DC00AF
:100B20005C080F39D9005908DA005C08F039D9009F
:100B30005908DB0088175B08D90004300310D90C72
:100B4000FF3E031D9E2D59080A128A116F260A12B4
:100B50008A11831203130817413083120313D9003B
:100B6000D90BB02DB32D8312031308135A080A12A0
:100B70008A116F260A128A11831203130817413053
:100B800083120313D900D90BC32DC62D831203136F
:100B90000813080083120313DC0008305C02031CF6
:100BA000D42DD801D9010800C530DA005A089F05B4
:100BB0005C08DA0002300310DA0DFF3E031DDB2D66
:100BC00003105A0DDB005B089F040D3083120313E2
:100BD000DB00FB30DA00DA0BEB2DDB0BEB2D8312A5
:100BE00003131F151F19F22D1E08D90083160313B6
:100BF0001E0883120313D80008007408831203131D
:100C0000FF00730884000A128A1100240A128A1154
:100C1000003A03190800740883120313FF007308D5
:100C200084000A128A1100240A128A110A128A11F7
:100C30003C260A128A110130F3070318F40AFD2D2D
:100C400083120313DB0088135B080A128A116F26D4
:100C50000A128A118312031308171A30831203131E
:100C6000DA00F730D900D90B332EDA0B332E382EB9
:100C70008312031308130800F000831203130C1EE1
:100C80003D2E70089900F101F2017208803AFF00D0
:100C900081307F02031D4E2EF430710203180800CC
:100CA0000130F1070318F20A0030F207452E8316CF
:100CB0000313071387178130990018151812831230
:100CC0000313981783160313981683120313181629
:100CD000831603138C16831203138C1208008312DD
:100CE0000313D800581C762E8816772E8812D81C2D
:100CF0007B2E08167C2E0812581D802E8815812EFA
:100D00008811D81D852E08150800081108008312C7
:100D100003138F018E010C1090101016901683167D
:100D200003130C14831203131014080000300A126A
:100D30008A1120260A128A1101300A128A112026ED
:100D4000080083120313981CA72E181218168C1E65
:100D5000A72E1A0808008130831203139F00C030A9
:100D6000831603139F00080064008001840A0406B0
:080D7000031900340406B52E3E
:02400E003A3F37
:00000001FF
