:060000000A128A11122809
:10000800FE00030EF0000408F1000A08F200831253
:1000180003137F08F3000A128A11462F0A128A1165
:100028001528F601F701F801F90183134C30840013
:1000380066300A128A11DE2783010A128A112428DF
:10004800831603138801FF3085008617FF3085006B
:100058000A128A11BB270A128A1128308316031341
:100068008100831203138101C0308B002D30A3005F
:100078008030A4000A128A11F0250A128A110A1285
:100088008A11A9270A128A110A128A113D250A1211
:100098008A110A128A11D5270A128A110A128A119C
:1000A800CA270A128A1183120313A201A20A013075
:1000B8000A128A119E250A128A112D3083120313FF
:1000C800A3008030A4000A128A11F0250A128A11AE
:1000D80083120313A201A20A02300A128A119E2572
:1000E8000A128A113E3083120313A3008030A40041
:1000F8000A128A11F0250A128A114D30831203134D
:10010800CB001930CA004F30C900C90B8928CA0B67
:100118008928CB0B89280A128A11CA270A128A1140
:1001280000300A128A11DC260A128A117508F700B3
:100138007408F60001300A128A11DC260A128A11A4
:10014800750883120313CD007408CC007708A90042
:100158007608A8000A128A117C270A128A118312CB
:1001680003132808AE002908AF002A08B00037306A
:10017800AB00FA30AC003E30AD000A128A11F92209
:100188000A128A11831203132B08BB002C08BC0027
:100198002D08BD000A128A11CC230A128A11831273
:1001A80003133C08F7003B08F600003077022330C1
:1001B80003197602031CEE28A201A20A01300A12D2
:1001C8008A119E250A128A110B3083120313A30089
:1001D8008030242983120313A201A20A01300A12D3
:1001E8008A119E250A128A115A3083120313A3001A
:1001F8008030A4000A128A11F0250A128A110830E8
:1002080083120313C9004908A20001300A128A1197
:100218009E250A128A11623083120313C900490805
:10022800AC007708AE007608AD005C300A128A117F
:1002380023220A128A115C3083120313A3000030B0
:10024800A4000A128A11F0250A128A1101308312B9
:1002580003134D025E3003194C02031C4129A2010D
:10026800A20A02300A128A119E250A128A111C302B
:1002780083120313A3008030772983120313A2018A
:10028800A20A02300A128A119E250A128A114F30D8
:1002980083120313A3008030A4000A128A11F025E8
:1002A8000A128A110B3083120313C9004908A200ED
:1002B80002300A128A119E250A128A1162308312AC
:1002C8000313C9004908AC004D08AE004C08AD0046
:1002D80052300A128A1123220A128A1152308312CA
:1002E8000313A3000030A4000A128A11F0250A1291
:1002F8008A115A3078067904031D94282A300A1284
:100308008A110D270A128A11033083120313CB00B6
:100318008A30CA005530C900C90B9029CA0B9029E8
:10032800CB0B902954300A128A110D270A128A1110
:10033800033083120313CB008A30CA005530C9003A
:10034800C90BA429CA0BA429CB0BA4293A300A1239
:100358008A110D270A128A11033083120313CB0066
:100368008A30CA005530C900C90BB829CA0BB82948
:10037800CB0BB8295C300A128A1194270A128A1109
:10038800033083120313CB008A30CA005530C900EA
:10039800C90BCC29CA0BCC29CB0BCC294D300A125E
:1003A8008A110D270A128A11033083120313CB0016
:1003B8008A30CA005530C900C90BE029CA0BE029A8
:1003C800CB0BE0293A300A128A110D270A128A113A
:1003D800033083120313CB008A30CA005530C9009A
:1003E800C90BF429CA0BF429CB0BF42952300A1291
:1003F8008A1194270A128A11033083120313CB003F
:100408008A30CA005530C900C90B082ACA0B082A05
:10041800CB0B082A23300A128A110D270A128A11D7
:10042800033083120313CB008A30CA005530C90049
:10043800C90B1C2ACA0B1C2ACB0B1C2A9428831212
:100448000313B7002D30AF002F08B2000130AC07FE
:10045800FF302C0784000A128A1164240A128A11B8
:10046800AF002F08B80038080319F42A25303806D9
:1004780003194A2A3808AF00370884002F08831365
:1004880080000130AF002F08B7072A2AB3010130D6
:10049800AC07FF302C0784000A128A1164240A1260
:1004A8008A11B800003A0319F42A643A0319602A39
:1004B8000D3A0319602A2A2A320884008313000897
:1004C800B500840A0008B6000230AF002F08B20752
:1004D800B61F772A0330AF002F08B304B509B60951
:1004E800B50A0319B60AB801B80A0530380603195F
:1004F8009E2A3808AF002F07013E84000A128A118D
:1005080064240A128A11B0000A128A1164240A1299
:100518008A11B10031083602031D942A30083502C9
:10052800031C9E2A0130AF002F08B8070530380693
:10053800031D7D2A330803390319AD2A2D30AF0076
:10054800370884002F08831380000130AF002F087C
:10055800B7073808AF002F08B400FF30AF002F08E6
:10056800B407340A03192A2A0A30A7000030A80061
:100578003408AF002F07013E84000A128A11642450
:100588000A128A11A0000A128A1164240A128A1116
:10059800A1003608A3003508A2000A128A113126E4
:1005A8000A128A11831203132108AA002008A9003D
:1005B8000A128A11A8260A128A118312031327081D
:1005C800303EB0003008B8003808AF003708840063
:1005D8002F08831380000130AF002F08B707B12A16
:1005E80037088400831380010800831203132B0843
:1005F800B1002C08B2002D08B3000310320D330DE2
:10060800B4003408B5003508031D112B0030AB00C9
:100618000030AC000030AD0008002E08B1002F08F3
:10062800B2003008B3000310320D330DB4003408A3
:10063800BA003A08031D272B0030AB000030AC008D
:100648000030AD0008003A087B3EB1003108B5071C
:100658002B08B1002C08B2002D08B300103003108D
:10066800B30CB20CB10CFF3E031D332B3108B400A0
:100678003408BA002E08B1002F08B2003008B300C1
:1006880010300310B30CB20CB10CFF3E031D452B08
:100698003108B4003408BA068030B1003108BA0510
:1006A800AC17AF17FF30AE05FF30AF050030B0050F
:1006B8000030B6000030B7000030B8000730B10095
:1006C8003108B9002B1C762B2E08B6072F0803110A
:1006D80003182F0A031DB707300803110318300A3F
:1006E800031DB80701300310AD0CAC0CAB0CFF3E7A
:1006F800031D772B01300310AE0DAF0DB00DFF3E7B
:10070800031D7F2B0130B902031D662B0930B10090
:100718003108B9002B1C9E2B2E08B6072F08031191
:1007280003182F0A031DB707300803110318300AEE
:10073800031DB80701300310AD0CAC0CAB0CFF3E29
:10074800031D9F2B01300310B80CB70CB60CFF3EED
:10075800031DA72B0130B902031D8E2B3608A000FC
:100768003708A1003808A2003508B1003108A300F5
:100778003A08B2003208A4000A128A11CF24831260
:1007880003132008AB002108AC002208AD000800C4
:10079800831203133B08BF003C08C0003D08C1009A
:1007A8000310400D410DC2004208C8004808031D4F
:1007B800E62B0030BE000030BD000030BC00003029
:1007C800BB0008003B08BF003C08C0003D08C10052
:1007D80017300310C10CC00CBF0CFF3E031DED2BDE
:1007E8003F08C2004208C300BC17FF30BB05FF30FA
:1007F800BC050030BD053B08C4003C08C5003D08E9
:10080800C600C7018E30C802C81F282C4808803A85
:100818008F3E0318182C0030BE000030BD00003099
:10082800BC000030BB00080001300310C70CC60C28
:10083800C50CC40CFF3E031D192C0130BF003F0836
:10084800C8070319432C182C18304802031C402CE5
:100858000030BE000030BD000030BC000030BB00DE
:1008680008000130BF000310C40DC50DC60DC70D2B
:10087800BF0B372C0130C8024808031D352C43082C
:100888000319512CC409C509C609C709C40A0319A3
:10089800C50A0319C60A0319C70A4708BE0046084D
:1008A800BD004508BC004408BB000800FF1B642CC1
:1008B80083137F1883170008840A0319FF0A0800A6
:1008C80004308A000408840A8207003401340034A2
:1008D8000A34003464340034E834033410342734E0
:1008E80048344934473448342034543445344D343A
:1008F8005034203420342034203420342034203420
:100908000034483449344734483420344D3445346D
:100918005434483441344E3445342034203420345F
:10092800203400342034483461347A3461347234E9
:1009380064346F34753473342034673461347334F9
:1009480020342034003444346534743465346334DA
:10095800743469346F346E3420346234793420341A
:1009680049344F34543400344D3465347434683465
:1009780061346E34653420343D34203400345434CA
:1009880045344D34503420343A342034003425343E
:100998006434203400348312031323080319D92C38
:1009A800220821042004031DEC2C0030A000003094
:1009B800A1000030A20008000130A5002508A30707
:1009C80001300310A20CA10CA00CFF3E031DE52C66
:1009D800FE3022050319072DE02C0130A50025085B
:1009E800A3070130A007003003180130A107003029
:1009F80003180130A20701300310A20CA10CA00CAF
:100A0800FF3E031D002DFF3022050319162DF12C82
:100A18000130A30201300310A00DA10DA20DFF3E6D
:100A2800031D0F2DA11B1C2D0230230203180C2DB2
:100A38002318242DFF30A0057F30A105FF30A20523
:100A48000310A30C2308A500A601A701103003106A
:100A5800A50DA60DA70DFF3E031D2B2D2508A004EF
:100A68002608A1042708A204240803190800A217CD
:100A7800080000300A128A1162270A128A1182308D
:100A880083120313A300DD30A200A20B492DA30B90
:100A9800492D03300A128A112A270A128A11213095
:100AA80083120313A3007530A200A20B592DA30BC8
:100AB800592D5E2D03300A128A112A270A128A112B
:100AC800483083120313A3006B30A200A20B6A2DD7
:100AD800A30B6A2D6F2D03300A128A112A270A12D6
:100AE8008A1102300A128A112A270A128A11023040
:100AF8000A128A112A270A128A1108300A128A1140
:100B08002A270A128A1100300A128A112A270A1281
:100B18008A110C300A128A112A270A128A11003007
:100B28000A128A112A270A128A1106300A128A1111
:100B38002A27080083120313A5002503031DC72DC8
:100B480022087F3EA3002308A8002808A300043039
:100B58000310A30CFF3E031DAC2D2308A40024089A
:100B6800A60028080F39A3002308A70026080A12A0
:100B78008A112A270A128A118312031327080A12D4
:100B88008A112A2708000230831203132506031D41
:100B980008002208BF3EA3002308A8002808A300D5
:100BA80004300310A30CFF3E031DD52D2308A40019
:100BB8002408A60028080F39A3002308A700260840
:100BC8000A128A112A270A128A1183120313270884
:100BD8000A128A112A27080083120313A801A901FF
:100BE80028082307A6002408A5000318A50AA81B9F
:100BF800A503831203132508A7002708FF0026086A
:100C080084000A128A115A240A128A11003A031916
:100C1800080028082307A6002408A5000318A50A29
:100C2800A81BA503831203132508A7002708FF00A4
:100C3800260884000A128A115A240A128A110A12F2
:100C48008A116F260A128A11013083120313A8072A
:100C58000318A90A0030A907F42D83120313A5016C
:100C6800A6012008210403196A2EA401A40AA11BC5
:100C7800492E01300310A00DA10DFF3E031D3E2E8D
:100C88000130F4007408A4073B2E01300310A50DB1
:100C9800A60DFF3E031D4A2E21082302031D562ED2
:100CA80020082202031C5F2E2008A2022108031C30
:100CB800A303A302251401300310A10CA00CFF3ECE
:100CC800031D602E0130A402031D492E2608A10031
:100CD8002508A000080083120313A20022080F3978
:100CE800F5007508A0002208F039F5007508A10084
:100CF80008152108F50004300310F50CFF3E031D0C
:100D0800802E75080A128A1162270A128A11831224
:100D1800031388154230F500F50B902E000083125E
:100D28000313881120080A128A1162270A128A11ED
:100D38008312031388154230F500F50BA12E00002D
:100D48008312031388110800831203132708280449
:100D58000319D72EAB01AB0AA81BBE2E0130031016
:100D6800A70DA80DFF3E031DB32E0130F500750831
:100D7800AB07B02E28082A02031DC42E2708290213
:100D8800031CCC2E2708A9022808031CAA03AA02C0
:100D980001300310A80CA70CFF3E031DCD2E013017
:100DA800AB02031DBE2E2A08A8002908A7000800C8
:100DB80083120313A20008302202031CE62EF4015A
:100DC800F5010800C530A00020089F052208A000F2
:100DD80002300310A00DFF3E031DED2E0310200D61
:100DE800A10021089F040D3083120313A100FB30DA
:100DF800A000A00BFD2EA10BFD2E831203131F15BF
:100E08001F19042F1E08F500831603131E08F4008B
:100E1800080083120313A0000C1E102F200899004D
:100E2800A101A2012208803AFF0081307F02031D40
:100E38001F2FF43021020318080001308312031316
:100E4800A1070318A20A0030A207162FF500831283
:100E58000313081175080A128A1162270A128A11E7
:100E68008312031388151A3083120313A100F73075
:100E7800A000A00B3D2FA10B3D2F422F831203137F
:100E8800881108000C1C572F0C100130F8070318A4
:100E9800F90A0030F9075F3078067904031D572FE7
:100EA800F801F90181017308FF0072088A007108CE
:100EB8008400700E8300FE0E7E0E0900F400741C80
:100EC800692F8312031308166C2F83120313081259
:100ED800F41C702F8816712F8812741D752F08172F
:100EE800762F0813F41D7A2F881708008813080036
:100EF800831203132808A0002908A100A2018E303C
:100F0800F4007408A300A4010A128A11CF248312E2
:100F180003132008A8002108A9002208AA00080035
:100F2800F500750884008313000803190800750884
:100F38008400831300080A128A110D270A128A11E5
:100F48000130F4007408F507952F8316031307136F
:100F580087178130990018151812831203139817F0
:100F680083160313981683120313181608008312A6
:100F780003138F018E010C10901010169016831613
:100F880003130C14831203131014080000300A1200
:100F98008A112A270A128A1101300A128A112A276D
:100FA80008008130831203139F00C0308316031397
:100FB8009F00080064008001840A040603190034B5
:040FC8000406DF2F0D
:02400E003A3F37
:00000001FF
