:100000000A128A11E02FFF1B0D2883137F18831714
:100010000008840A0319FF0A08007F087F398A0054
:0A0020000408840A0319FF0A820095
:100646001A300A128A11412308007808F100790845
:10065600F2000A128A11CF24080064008001840A7D
:100666000406031900340406312B81308312031368
:100676009F00C030831603139F000800F000831606
:100686000313981C422B7008831203139900080069
:1006960000300A128A11A6230A128A1101300A12A0
:1006A6008A11A6230800831603130713871724301D
:1006B60098007008990090308312031398008316EF
:1006C60003138C160B1708007E088A007F08820029
:1006D60067230A128A118000840A04087D0603191A
:1006E6000034FF0A0319FE0A6B2B7808F10079081B
:1006F600F2000A128A11CF240A128A110D300A1248
:100706008A1141230A128A110A300A128A114123D8
:100716000800F000701C932B831203130816962B07
:10072600831203130812F01C9A2B88169B2B88122F
:10073600701D9F2B0817A02B0813F01DA42B8817DC
:10074600080088130800F3008312031308117308C6
:100756000A128A118C230A128A118312031388152E
:100766001A30F200F830F100F10BB72BF20BB72B71
:10077600000083120313881108004830F8008930FE
:10078600F9000A128A1178230A128A113330FC0002
:10079600BB30FB00DF30FA00FA0BCF2BFB0BCF2B65
:1007A600FC0BCF2BD62B3130F8008830F9000A121B
:1007B6008A1178230A128A113330FC00BB30FB0001
:1007C600DF30FA00FA0BE52BFB0BE52BFC0BE52BD8
:1007D600EC2B0800FB003E30F1008930F2000A12D3
:1007E6008A11CF240A128A117B08F1000030F20028
:1007F6000A128A11CF240A128A114630F100893072
:10080600F2000A128A11CF240A128A110D300A1236
:100816008A1141230A128A113330FA00BB30F900DB
:10082600DF30F800F80B152CF90B152CFA0B152CEC
:100836001C2C0800F40074080F39F1007108F2004E
:100846007408F039F1007108F300831203130815D8
:100856007308F10004300310F10CFF3E031D2E2C2B
:1008660071080A128A118C230A128A118312031341
:1008760088154230F100F10B3E2C00008312031361
:10088600881172080A128A118C230A128A1183129D
:10089600031388154230F100F10B4F2C0000831230
:1008A600031388110800373430343134303430348F
:1008B600343436343634323433340034003400348D
:1008C600003400340034003400340034003437344B
:1008D60035343434383438343434393439343334C0
:1008E600373400340034003400340034003400342B
:1008F6000034003400343934363430343034303453
:10090600383432343334343432340034003400343E
:100916000034003400340034003400340034FA016A
:10092600FB017A087507F8007608F7000318F70A3E
:10093600FA1BF7037708F900790883120313FF00FF
:10094600780884000A128A1103200A128A11003AD2
:10095600031908007A087507F8007608F7000318E7
:10096600F70AFA1BF7037708F900790883120313CD
:10097600FF00780884000A128A1103200A128A11DD
:100986000A128A111D240A128A110130FA07031865
:10099600FB0A0030FB07942CF601F7017608710775
:1009A600F4007208F3000318F30AF61BF303730846
:1009B600F500750883120313FF00740884000A12F9
:1009C6008A1103200A128A11003A031908007608D0
:1009D6007107F4007208F3000318F30AF61BF30319
:1009E6007308F500750883120313FF00740884006A
:1009F6000A128A1103200A128A110A128A11412345
:100A06000A128A110130F6070318F70A0030F707B1
:100A1600D12CF7007703031D312D74087F3EF500B6
:100A26007508FA007A08F50004300310F50CFF3E4D
:100A3600031D182D7508F6007608F8007A080F3998
:100A4600F5007508F90078080A128A11A6230A1219
:100A56008A1179080A128A11A6230800023077063D
:100A6600031D08007408BF3EF5007508FA007A08F1
:100A7600F50004300310F50CFF3E031D3D2D7508EF
:100A8600F6007608F8007A080F39F5007508F900BF
:100A960078080A128A11A6230A128A1179080A12FC
:100AA6008A11A623080000300A128A118C230A1222
:100AB6008A118230F500DD30F400F40B602DF50B61
:100AC600602D652D03300A128A11A6230A128A1197
:100AD6002130F5007630F400F40B6F2DF50B6F2DF9
:100AE600000003300A128A11A6230A128A1148301E
:100AF600F5006C30F400F40B7E2DF50B7E2D000016
:100B060003300A128A11A6230A128A1102300A1227
:100B16008A11A6230A128A1102300A128A11A62302
:100B26000A128A1108300A128A11A6230A128A1199
:100B360000300A128A11A6230A128A110C300A12F0
:100B46008A11A6230A128A1100300A128A11A623D4
:100B56000A128A1106300A128A11A6230800831681
:100B660003138801FF3085008616061486100611C9
:100B760086110612831203138610061186110612B9
:100B86008130F0000030F1000A128A1156230A1251
:100B96008A110A128A1156250A128A110A128A1114
:100BA6004B230A128A110A128A1138230A128A1151
:100BB600F401F40A01300A128A110C250A128A116C
:100BC600ED30F5008830F6000A128A1192240A12D6
:100BD6008A11F401F40A02300A128A110C250A124B
:100BE6008A11DC30F5008830F6000A128A11922448
:100BF6000A128A114D3083120313E8001930E700F8
:100C06004F30E600E60B052EE70B052EE80B052E0A
:100C1600F401F40A01300A128A110C250A128A110B
:100C2600FE30F5008830F6000A128A1192240A1264
:100C36008A11F401F40A02300A128A110C250A12EA
:100C46008A114330F5008830F6000A128A11922480
:100C56000A128A110A128A11C0230A128A110A126A
:100C66008A114B230A128A11F401F40A02300A127D
:100C76008A110C250A128A114330F5008830F600D5
:100C86000A128A1192240A128A11F401F40A013016
:100C96000A128A110C250A128A119830F50088303A
:100CA600F6000A128A1192240A128A118312031379
:100CB6008614061186110612861A372E0230831202
:100CC6000313E8004530E700A930E600E60B692E7D
:100CD600E70B692EE80B692E83120313861A372E4B
:100CE600F401F40A01300A128A110C250A128A113B
:100CF6000F30F5008930F6000A128A1192240A1282
:100D06008A11F401F40A01300A128A110C250A121A
:100D16008A112030F5008930F6000A128A119224D1
:100D26000A128A11333083120313E800BB30E7003E
:100D3600DF30E600E60B9D2EE70B9D2EE80B9D2E81
:100D4600831203130618AB2F86140611861106129A
:100D5600F401F40A01300A128A110C250A128A11CA
:100D6600CB30F5008830F6000A128A1192240A1256
:100D76008A11F401F40A02300A128A110C250A12A9
:100D86008A11BA30F5008830F6000A128A119224C8
:100D96000A128A114D3083120313E8001930E70056
:100DA6004F30E600E60BD52EE70BD52EE80BD52EF9
:100DB60020300A128A11ED230A128A11F401F40A6C
:100DC60001300A128A110C250A128A116530F500C3
:100DD6008830F6000A128A1192240A128A1100300B
:100DE600F8008830F9000A128A1128230A128A119B
:100DF6000A128A1123230A128A11F401F40A013015
:100E06000A128A110C250A128A113130F50089302E
:100E1600F6000A128A1192240A128A111A308312D3
:100E26000313E8005E30E7006D30E600E60B192F8D
:100E3600E70B192FE80B192F202F34300A128A11CD
:100E4600ED230A128A11F401F40A01300A128A11FA
:100E56000C250A128A117630F5008830F6000A123F
:100E66008A1192240A128A110030F8008830F9009B
:100E76000A128A1128230A128A110A128A112323B6
:100E86000A128A11F401F40A01300A128A110C2599
:100E96000A128A113130F5008930F6000A128A11D9
:100EA60092240A128A111A3083120313E8005E3064
:100EB600E7006D30E600E60B5E2FE70B5E2FE80BD2
:100EC6005E2F652F48300A128A11ED230A128A1105
:100ED600F401F40A01300A128A110C250A128A1149
:100EE6008730F5008830F6000A128A1192240A1219
:100EF6008A110030F8008830F9000A128A11282376
:100F06000A128A110A128A1123230A128A11F4017B
:100F1600F40A01300A128A110C250A128A1131309C
:100F2600F5008930F6000A128A1192240A128A11F3
:100F36001A3083120313E8005E30E7006D30E600D6
:100F4600E60BA32FE70BA32FE80BA32FAA2F322E16
:100F56008610061586150612F401F40A01300A12E7
:100F66008A110C250A128A115430F5008830F600D1
:100F76000A128A1192240A128A11F401F40A023022
:100F86000A128A110C250A128A11A930F500883036
:100F9600F6000A128A1192240A128A117F308312ED
:100FA6000313E800D430E7003130E600E60BD92F12
:100FB600E70BD92FE80BD92F322E83135C30FD00B7
:100FC6000430FE005630FF00203084000A128A11D9
:100FD6006B230A128A11A0308400D2300A128A11B9
:100FE60030230A128A115C30840066300A128A1194
:100FF600302383010A128A11B22D483469346734CA
:101006006834203443344F34203463346F346E34C0
:10101600743465346E347434203469346E34203458
:1010260065347834683461347534733474340D340B
:101036000A3453346534723476346934633465342F
:10104600203479346F347534723420347634653410
:101056006834693463346C34653400344134543450
:101066002B3443344E344D3449343D3432342C34ED
:1010760032342C3430342C3430342C343034003484
:1010860020342034203420342034203420342034BA
:1010960020342034203420342034203420342034AA
:1010A600003420342034203445346E3467346934B7
:1010B6006E34653420344F344E342034203420349A
:1010C6002034003420342034533465346E34643490
:1010D60069346E34673420344D34533447343134F4
:1010E60020342034003420342034533465346E34B4
:1010F600643469346E34673420344D3453344734A1
:1011060032342034203400342034203453346534CF
:101116006E34643469346E34673420344D34533459
:1011260047343334203420340034203420342034FF
:101136005434753472346E3420344F344E34203483
:101146004B34453459342034203400342034203490
:1011560041346234733465346E3463346534203418
:101166006F346634203443344F3420340034203412
:10117600503472346534733465346E346334653494
:1011860020346F346634203443344F3420340034F2
:1011960045346E34673469346E34653420347334C0
:1011A60068347534743464346F3477346E34203470
:1011B600003420344D346F346E34693474346F34F3
:1011C600723469346E34673420347334793473344A
:1011D600203400344134753474346F346D346F34D4
:1011E6006234203465347834683461347534733449
:1011F6007434203400344D346534733473346134BC
:10120600673465342034733465347434753470341B
:101216002E342E342E340034203445346E34673464
:1012260069346E3465342034733474346134723402
:1012360074342E342E342E340034433468346534FA
:1012460063346B3469346E346734203465347834EF
:101256006834613475347334743400344D34653411
:10126600733473346134673465342034533445340D
:101276004E3454340034413454342B3443344D34D6
:10128600473453343D3422340034413454342B34FF
:1012960043344D34473446343D34313400344134DC
:0C12A600543444343D3400343B340034F4
:02400E003A3F37
:00000001FF
