:060000000A128A11122809
:10000800FE00030EF8000408F9000A08FA0083123B
:1000180003137F08FB000A128A11972D0A128A110E
:100028001528FC01FD0183120313CD01CE018316AF
:100038000313C401C501C601C701C801C901CA012A
:10004800CB01CC01CD0183010A128A112B2883161A
:100058000313A001A1018801FF3085000A128A1547
:10006800AC260A128A1128308316031381008312E2
:1000780003138101C0308B000A128A15BB260A12AD
:100088008A110A128A158C260A128A110A128A11F2
:10009800F0260A128A1183120313A401A40A01305C
:1000A8000A128A1151270A128A111C30831203136B
:1000B800A5008030A6000A128A11A3270A128A1105
:1000C80083120313A401A40A02300A128A115127C9
:1000D8000A128A110B3083120313A5008030A60080
:1000E8000A128A11A3270A128A11333083120313C2
:1000F800CC00BB30CB00DF30CA00CA0B8128CB0B49
:100108008128CC0B81280A128A1595260A128A1191
:1001180000300A128A151E270A128A118312031345
:10012800210883160313C3008312031320088316C0
:100138000313C20001300A128A151E270A128A11F7
:1001480083120313210883160313C10083120313B8
:10015800200883160313C000430883120313A90061
:1001680083160313420883120313A8000A128A1580
:10017800E5260A128A11831203132808AF002908FA
:10018800B0002A08B1003730AC00FA30AD003E307C
:10019800AE000A128A1136240A128A118312031336
:1001A8002C08BC002D08BD002E08BE000A128A11BA
:1001B80009250A128A11831203133D0883160313B3
:1001C800C300831203133C0883160313C2000030D4
:1001D8004302283003194202031CFE28831203132A
:1001E800A401A40A01300A128A1151270A128A119D
:1001F8004F304F2983120313A401A40A01300A12B5
:100208008A1151270A128A116D3083120313A5002F
:100218008030A6000A128A11A3270A128A11033015
:1002280083120313CA004A08A40001300A128A1173
:1002380051270A128A11633083120313CA004A082D
:10024800AE0083160313430883120313B00083160A
:100258000313420883120313AF00A2300A128A1153
:100268004B230A128A11A23083120313A50000300F
:10027800A6000A128A11A3270A128A1105308312CE
:100288000313CA004A08A40001300A128A11512730
:100298000A128A11593083120313A5008030A60070
:1002A8000A128A11A3270A128A11831603134B080C
:1002B8004906031D61294A0848060319C7290A3057
:1002C80083120313CA004A08A40001300A128A11D3
:1002D80051270A128A11673083120313A500803050
:1002E800A6000A128A11A3270A128A110D30831256
:1002F8000313CA004A08A40001300A128A115127C0
:100308000A128A115F3083120313CA004A08AE002A
:10031800831603134B0883120313B00083160313C9
:100328004A0883120313AF00B6300A128A114B230E
:100338000A128A11B63083120313A5000030A600F2
:100348000A128A11A3270A128A110530831203138D
:10035800CA004A08A40001300A128A1151270A1259
:100368008A115B3083120313A5008030A6000A129D
:100378008A11A3270A128A11831603134B08C9008E
:100388004A08C8000D2A0A3083120313CA004A0813
:10039800A40001300A128A1151270A128A11673003
:1003A80083120313A5008030A6000A128A11A3271E
:1003B8000A128A110D3083120313CA004A08A400D6
:1003C80001300A128A1151270A128A115F308312EA
:1003D8000313CA004A08AE008316031349088312A0
:1003E8000313B00083160313480883120313AF00E6
:1003F800B6300A128A114B230A128A11B6308312B8
:100408000313A5000030A6000A128A11A3270A12B6
:100418008A110030831603134102C93003194002C0
:10042800031C692A0130C6070318C70A0030C7072A
:10043800053083120313CA004A08A40002300A12C6
:100448008A1151270A128A116A3083120313A500F0
:100458008030A6000A128A11A3270A128A110830CE
:1004680083120313CA004A08A40002300A128A1130
:1004780051270A128A11703083120313CA004A08DE
:10048800AE0083160313470883120313B0008316C4
:100498000313460883120313AF00AC300A128A1103
:1004A8004B230A128A11AC3083120313A5000030C3
:1004B800A6000A128A11A3270A128A1183160313A7
:1004C8004708C5004608C400AF2A05308312031345
:1004D800CA004A08A40002300A128A1151270A12D7
:1004E8008A116A3083120313A5008030A6000A120D
:1004F8008A11A3270A128A11083083120313CA002B
:100508004A08A40002300A128A1151270A128A11D5
:10051800703083120313CA004A08AE00831603130F
:10052800450883120313B00083160313440883128B
:100538000313AF00AC300A128A114B230A128A1136
:10054800AC3083120313A5000030A6000A128A11EA
:10055800A3270A128A115A30831603134C064D0436
:10056800031D8C282A300A128A15A0260A128A111D
:100578000D3083120313CB00FB30CA00CA0BC22A0A
:10058800CB0BC22A00308316031343022830031909
:100598004202031CD52A393083120313A10080308C
:1005A800E52A6D3083120313A1008030A2000A12DD
:1005B8008A11D6250A128A11A23083120313A100C8
:1005C8000030A2000A128A11D6250A128A110030B8
:1005D800831603134B02963003194A02031CFA2AA6
:1005E800443083120313A10080300A2B6730831232
:1005F8000313A1008030A2000A128A11D6250A121C
:100608008A11B63083120313A1000030A2000A1227
:100618008A11D6250A128A1100308316031347025D
:10062800193003194602031C1F2B2D3083120313A4
:10063800A10080302F2B6A3083120313A100803071
:10064800A2000A128A11D6250A128A11AC30831226
:100658000313A1000030A2000A128A11D6250A123B
:100668008A1123300A128A15A0260A128A111A3012
:1006780083120313CC005E30CB006D30CA00CA0B66
:10068800432BCB0B432BCC0B432B4A2B8C288312AD
:100698000313B9002F30B1003108B5000130AE079F
:1006A800FF302E0784000A128A110A260A128A11BC
:1006B800B1003108BA003A080319312C25303A063E
:1006C8000319722B3A08B1003908840031088313E2
:1006D80080000130B1003108B907522BB601762BE2
:1006E80036178E2B0130AE07FF302E0784000A1212
:1006F8008A110A260A128A11BA00003A0319312C03
:10070800643A03198E2B0D3A03198E2B1C3A0319E0
:10071800742B522B361BA82B350884008313000832
:10072800B700840A0008B8000230B1003108B507E4
:10073800B81FB42B0330B1003108B604B709B809A3
:10074800B70A0319B80AB42B3508840083130008C4
:10075800B700840A0008B8000230B1003108B507B4
:10076800BA01BA0A05303A060319DB2B3A08B10078
:100778003107013E84000A128A110A260A128A11D8
:10078800B2000A128A110A260A128A11B300330823
:100798003802031DD12B32083702031CDB2B013032
:1007A800B1003108BA0705303A06031DBA2B3608DE
:1007B80003390319EA2B2D30B100390884003108B8
:1007C800831380000130B1003108B9073A08B1003D
:1007D8003108B400FF30B1003108B407340A0319F6
:1007E800522B0A30A8000030A9003408B1003107A4
:1007F800013E84000A128A110A260A128A11A000F0
:100808000A128A110A260A128A11A1003808A300BE
:100818003708A2000A128A15C2270A128A118312FF
:1008280003132108AB002008AA000A128A155127D1
:100838000A128A11831203132808303EB2003208C4
:10084800BA003A08B10039088400310883138000DF
:100858000130B1003108B907EE2B39088400831341
:1008680080010800831203132C08B2002D08B3007E
:100878002E08B4000310330D340DB5003508B6004A
:100888003608031D4E2C0030AC000030AD0000309F
:10089800AE0008002F08B2003008B3003108B400D9
:1008A8000310330D340DB5003508BB003B08031D9C
:1008B800642C0030AC000030AD000030AE00080001
:1008C8003B087B3EB2003208B6072C08B2002D0860
:1008D800B3002E08B40010300310B40CB30CB20CE3
:1008E800FF3E031D702C3208B5003508BB002F08E9
:1008F800B2003008B3003108B40010300310B40C53
:10090800B30CB20CFF3E031D822C3208B50035082B
:10091800BB068030B2003208BB05AD17B017FF30F8
:10092800AF05FF30B0050030B1050030B70000302A
:10093800B8000030B9000730B2003208BA002C1CE9
:10094800B32C2F08B707300803110318300A031D0A
:10095800B807310803110318310A031DB90701301C
:100968000310AE0CAD0CAC0CFF3E031DB42C0130D3
:100978000310AF0DB00DB10DFF3E031DBC2C0130AF
:10098800BA02031DA32C0930B2003208BA002C1C8D
:10099800DB2C2F08B707300803110318300A031D92
:1009A800B807310803110318310A031DB9070130CC
:1009B8000310AE0CAD0CAC0CFF3E031DDC2C01305B
:1009C8000310B90CB80CB70CFF3E031DE42C013022
:1009D800BA02031DCB2C3708A0003808A10039083B
:1009E800A2003608B2003208A3003B08B30033085F
:1009F800A4000A128A118226831203132008AC006D
:100A08002108AD002208AE000800831203133C0839
:100A1800C0003D08C1003E08C2000310410D420D50
:100A2800C3004308C9004908031D232D0030BF0037
:100A38000030BE000030BD000030BC0008003C089B
:100A4800C0003D08C1003E08C20017300310C20CA8
:100A5800C10CC00CFF3E031D2A2D4008C3004308EB
:100A6800C400BD17FF30BC05FF30BD050030BE0512
:100A78003C08C5003D08C6003E08C700C8018E30C6
:100A8800C902C91F652D4908803A8F3E0318552DA4
:100A98000030BF000030BE000030BD000030BC0098
:100AA800080001300310C80CC70CC60CC50CFF3E6B
:100AB800031D562D0130C0004008C9070319802DB9
:100AC800552D18304902031C7D2D0030BF00003021
:100AD800BE000030BD000030BC0008000130C0007E
:100AE8000310C50DC60DC70DC80DC00B742D013000
:100AF800C9024908031D722D440803198E2DC50922
:100B0800C609C709C809C50A0319C60A0319C70AC5
:100B18000319C80A4808BF004708BE004608BD00B8
:100B28004508BC0008000C1CCA2D0C1001308316A7
:100B38000313CC070318CD0A0030CD075F304C06ED
:100B48004D04031DCA2D831203130108F600F70193
:100B5800760883160313CA007708CB004B08F10008
:100B68004A08F0000630F2000030F3000A128A1535
:100B7800FD260A128A11710883160313CB00700828
:100B8800CA00CC01CD018312031381017B088312B3
:100B9800FF007A088A0079088400780E8300FE0E28
:100BA8007E0E0900831203132208FF002108840027
:100BB8000A128A1100260A128A11003A031908003B
:100BC800831203132208FF00210884000A128A11E5
:100BD80000260A128A110A128A15A0260A128A11F8
:0E0BE800013083120313A1070318A20AD62DB1
:100C0000FF1B0A2E83137F1883170008840A031919
:100C1000FF0A080006308A000408840A82070034AC
:100C2000013400340A34003464340034E8340334CA
:100C3000103427342034203420345534533449348C
:100C40004E344734203449344F3454342034203423
:100C500020342034003420344834453441344C347A
:100C60005434483420344D344F344E3449345434A1
:100C70004F345234203400344834493447344834F3
:100C800020345034523445345334533420340034F7
:100C900048344934473448342034543445344D348E
:100CA00050342034003448344934473448342034F4
:100CB00042344534413454342034003454344534BF
:100CC0004D345034203448344934473448340034A7
:100CD000203420342034203420340034253464344B
:100CE00020340034253475342034003448343A3408
:100CF000003452343A34003454343A340034253415
:100D00006434003483120313230803198C2E220841
:100D100021042004031D9F2E0030A0000030A100FC
:100D20000030A20008000130A5002508A30701300B
:100D30000310A20CA10CA00CFF3E031D982EFE3048
:100D400022050319BA2E932E0130A5002508A3070A
:100D50000130A007003003180130A107003003184C
:100D60000130A20701300310A20CA10CA00CFF3E21
:100D7000031DB32EFF3022050319C92EA42E013006
:100D8000A30201300310A00DA10DA20DFF3E031D13
:100D9000C22EA11BCF2E023023020318BF2E231810
:100DA000D72EFF30A0057F30A105FF30A20503102C
:100DB000A30C2308A500A601A70110300310A50D60
:100DC000A60DA70DFF3E031DDE2E2508A004260854
:100DD000A1042708A204240803190800A217080088
:100DE00000300A128A15CD260A128A118230831227
:100DF0000313A500DD30A400A40BFC2EA50BFC2ED4
:100E000003300A128A11E4270A128A112130831250
:100E10000313A5007530A400A40B0C2FA50B0C2FF9
:100E2000112F03300A128A11E4270A128A1148305E
:100E300083120313A5006B30A400A40B1D2FA50B78
:100E40001D2F222F03300A128A11E4270A128A1159
:100E500002300A128A11E4270A128A1102300A1299
:100E60008A11E4270A128A1108300A128A11E4272B
:100E70000A128A1100300A128A11E4270A128A1112
:100E80000C300A128A11E4270A128A1100300A1261
:100E90008A11E4270A128A1106300A128A11E427FD
:100EA000080083120313A7002703031D7A2F2408C9
:100EB0007F3EA5002508AA002A08A50004300310DB
:100EC000A50CFF3E031D5F2F2508A6002608A800DD
:100ED0002A080F39A5002508A90028080A128A1136
:100EE000E4270A128A118312031329080A128A11AD
:100EF000E42708000230831203132706031D0800AD
:100F00002408BF3EA5002508AA002A08A500043031
:100F10000310A50CFF3E031D882F2508A6002608F8
:100F2000A8002A080F39A5002508A90028080A12D8
:100F30008A11E4270A128A118312031329080A125C
:100F40008A11E427080083120313AA01AB012A08BF
:100F50002507A8002608A7000318A70AAA1BA703AD
:100F6000831203132708A9002908FF00280884001A
:100F70000A128A1100260A128A11003A031908007F
:100F80002A082507A8002608A7000318A70AAA1BF5
:100F9000A703831203132708A9002908FF002808C4
:100FA00084000A128A1100260A128A110A128A156E
:100FB00085270A128A11013083120313AA07031826
:100FC000AB0A0030AB07A72F83120313A3008813CB
:100FD00023080A128A15CD260A128A1183120313D6
:100FE00008171A3083120313A200F730A100A10BD7
:100FF000F72FA20BF72FFC2F8312031308130800FF
:101D18008130831203139F00C030831603139F0082
:101D2800080000300A128A11E4270A128A150130C5
:101D38000A128A11E427080083120313A0000C1E5C
:101D4800A32E200899008316031398180800A72EBD
:101D5800831203138F018E010C1090101016901629
:101D6800831603130C14831203131014080083162C
:101D78000313071387178130990018151812831257
:101D88000313981783160313981683120313181650
:101D9800080083120313A000201CD42E8816D52E09
:101DA8008812A01CD92E0816DA2E0812201DDE2E45
:101DB8008815DF2E8811A01DE32E081508000811CC
:101DC8000800831203132808A0002908A100A20113
:101DD8008E30AB002B08A300A4010A128A118226B8
:101DE800831203132008A8002108A9002208AA00CA
:101DF8000800F401F501701C072F7208F407031896
:101E0800F50A7308F50701300310F20DF30DFF3ED4
:101E1800031D082F01300310F10CF00CFF3E031DC9
:101E28000F2F70087104031DFF2E7508F100740848
:101E3800F000080083120313A40008302402031CD6
:101E4800282FA001A1010800C530A20022089F0583
:101E58002408A20002300310A20DFF3E031D2F2FFD
:101E68000310220DA30023089F040D3083120313CF
:101E7800A300FB30A200A20B3F2FA30B3F2F83121E
:101E880003131F151F19462F1E08A10083160313DD
:101E98001E0883120313A0000800831203132808E6
:101EA80029040319802FAD01AD0AA91B672F013042
:101EB8000310A80DA90DFF3E031D5C2F0130AC00D7
:101EC8002C08AD07592F29082B02031D6D2F280850
:101ED8002A02031C752F2808AA022908031CAB0331
:101EE800AB0201300310A90CA80CFF3E031D762F8E
:101EF8000130AD02031D672F2B08A9002A08A8008E
:101F0800080083120313A40024080F39A100210834
:101F1800A2002408F039A1002108A300881723088B
:101F2800A10004300310A10CFF3E031D962F2108C9
:101F38000A128A15CD260A128A1583120313081766
:101F4800413083120313A100A10BA82FAB2F8312DA
:101F58000313081322080A128A15CD260A128A15B5
:101F6800831203130817413083120313A100A10B36
:101F7800BB2FBE2F83120313081308008312031309
:101F8800A501A601200821040319FB2FA701A70A10
:101F9800A11BDA2F01300310A00DA10DFF3E031D78
:101FA800CF2F0130A4002408A707CC2F013003103D
:101FB800A50DA60DFF3E031DDB2F21082302031DDF
:101FC800E72F20082202031CF02F2008A202210874
:101FD800031CA303A302251401300310A10CA00CB9
:101FE800FF3E031DF12F0130A702031DDA2F26083B
:081FF800A1002508A00008006B
:02400E003A3F37
:00000001FF
