:060000000A128A11E82F2C
:10000A00F000831203130C1E062870089900831649
:10001A000313981808000C280A128A1169230A1275
:10002A008A11013A03191B28031008000314080057
:10003A000A128A1169230A128A11023A0319272815
:10004A000310080003140800F63488340D34893488
:10005A00FC348834123489340834893402348934BB
:10006A007E088A007F08820035200A128A118000E1
:10007A00840A04087D0603190034FF0A0319FE0ADC
:10008A003928831603130713871781309900181527
:10009A0018128312031398178316031398168312E0
:1000AA000313181608007808F0007908F100F20125
:1000BA008E30FB007B08F300F4010A128A116F22CA
:1000CA007008F8007108F9007208FA000800F200D6
:1000DA007208840083130008031908007208840058
:1000EA00831300080A128A1105200A128A110130A4
:1000FA00F1007108F2076D28F000701C882883123D
:10010A00031388168B28831203138812F01C8F2876
:10011A00081690280812701D9428881595288811A9
:10012A00F01D99280815080008110800F300831229
:10013A000313881373080A128A1181200A128A117A
:10014A008312031308171A30F200F830F100F10B8A
:10015A00AC28F20BAC280000831203130813080022
:10016A00F40008307402031CBD28F001F1010800F4
:10017A00C530F2007208831203139F057408F20057
:10018A0002300310F20DFF3E031DC6280310720D44
:10019A00F30073089F040D30F300FB30F200F20BFA
:1001AA00D428F30BD428D928831203131F151F1937
:1001BA00DC281E08F100831603131E08F00008004D
:1001CA007808790403191229FD01FD0AF91BF92897
:1001DA0001300310F80DF90DFF3E031DEE28013022
:1001EA00FC007C08FD07EB2879087B02031DFF2829
:1001FA0078087A02031C07297808FA027908031C8E
:10020A00FB03FB0201300310F90CF80CFF3E031D3F
:10021A0008290130FD02031DF9287B08F9007A0834
:10022A00F8000800F40074080F39F1007108F200B0
:10023A007408F039F1007108F30083120313881768
:10024A007308F10004300310F10CFF3E031D282946
:10025A0071080A128A1181200A128A118312031361
:10026A0008174230F100F10B3829000083120313FA
:10027A00081372080A128A1181200A128A1183123B
:10028A00031308174230F100F10B492900008312C9
:10029A00031308130800F501F60170087104031925
:1002AA008729F701F70AF11B662901300310F00DBF
:1002BA00F10DFF3E031D5B290130F4007408F707B6
:1002CA00582901300310F50DF60DFF3E031D67296D
:1002DA0071087302031D732970087202031C7C29BA
:1002EA007008F2027108031CF303F302751401305B
:1002FA000310F10CF00CFF3E031D7D290130F702BB
:10030A00031D66297608F1007508F0000800FA0155
:10031A00FB017A087507F8007608F7000318F70A50
:10032A00FA1BF7037708F900790883120313FF0011
:10033A00780884000A128A1500200A128A11003AE3
:10034A00031908007A087507F8007608F7000318F9
:10035A00F70AFA1BF7037708F900790883120313DF
:10036A00FF00780884000A128A1500200A128A11EE
:10037A000A128A1117210A128A110130FA07031880
:10038A00FB0A0030FB078E29F7007703031DEE29CD
:10039A0074087F3EF5007508FA007A08F500043003
:1003AA000310F50CFF3E031DD5297508F6007608E3
:1003BA00F8007A080F39F5007508F90078080A126A
:1003CA008A119B200A128A1179080A128A119B2023
:1003DA00080002307706031D08007408BF3EF500C6
:1003EA007508FA007A08F50004300310F50CFF3E90
:1003FA00031DFA297508F6007608F8007A080F39FD
:10040A00F5007508F90078080A128A119B200A1269
:10041A008A1179080A128A119B20080000300A12F0
:10042A008A1181200A128A118230F500DD30F40027
:10043A00F40B1D2AF50B1D2A222A03300A128A11EF
:10044A009B200A128A112130F5007630F400F40B51
:10045A002C2AF50B2C2A000003300A128A119B2041
:10046A000A128A114830F5006C30F400F40B3B2A6A
:10047A00F50B3B2A000003300A128A119B200A124C
:10048A008A1102300A128A119B200A128A1102303A
:10049A000A128A119B200A128A1108300A128A113A
:1004AA009B200A128A1100300A128A119B200A1212
:1004BA008A110C300A128A119B200A128A11003002
:1004CA000A128A119B200A128A1106300A128A110C
:1004DA009B20080073080319772A720871047004B4
:1004EA00031D8A2A0030F0000030F1000030F200CB
:1004FA0008000130F5007508F30701300310F20C0B
:10050A00F10CF00CFF3E031D832AFE30720503191D
:10051A00A52A7E2A0130F5007508F3070130F00795
:10052A00003003180130F107003003180130F207D8
:10053A0001300310F20CF10CF00CFF3E031D9E2A51
:10054A00FF3072050319B42A8F2A0130F3020130F1
:10055A000310F00DF10DF20DFF3E031DAD2AF11B44
:10056A00BA2A023073020318AA2A7318C22AFF3061
:10057A00F0057F30F105FF30F2050310F30C730824
:10058A00F500F601F70110300310F50DF60DF70D21
:10059A00FF3E031DC92A7508F0047608F10477089E
:1005AA00F204740803190800F217080083120313EF
:1005BA005408D8005508D9005608DA000310590D16
:1005CA005A0DDB005B08E1006108031DF52A0030C3
:1005DA00D7000030D6000030D5000030D400080023
:1005EA005408D8005508D9005608DA001730031005
:1005FA00DA0CD90CD80CFF3E031DFC2A5808DB0084
:10060A005B08DC00D517FF30D405FF30D505003074
:10061A00D6055408DD005508DE005608DF00E00163
:10062A008E30E102E11F372B6108803A8F3E0318B2
:10063A00272B0030D7000030D6000030D50000301C
:10064A00D400080001300310E00CDF0CDE0CDD0CD6
:10065A00FF3E031D282B0130D8005808E107031973
:10066A00522B272B18306102031C4F2B0030D70066
:10067A000030D6000030D5000030D4000800013028
:10068A00D8000310DD0DDE0DDF0DE00DD80B462B73
:10069A000130E1026108031D442B5C080319602B39
:1006AA00DD09DE09DF09E009DD0A0319DE0A03199B
:1006BA00DF0A0319E00A6008D7005F08D6005E085F
:1006CA00D5005D08D400080050308400831203135B
:1006DA00200883138000840A21088000840A2208E3
:1006EA008000840A23088000840A24088000840A7F
:1006FA002508800044308400A030F0000408F1008E
:10070A000C30F2007008840083130008F300F00A2A
:10071A007108840073088000F10AF20B872BD80154
:10072A00D80A58080319FD2B0A128A15DF270A125C
:10073A008A11F000700883120313D600D90106301B
:10074A0059020318962B5908F0007007443E84009A
:10075A0083130008F100840A0008F2005908503E89
:10076A00840000087107840072080318720AFF00E7
:10077A000A128A1500200A128A115606031DF32B43
:10078A000130F0005908503E840070088313800736
:10079A005908223E840088300318013EFF000A12DD
:1007AA008A1500200A128A11F0005908503E840066
:1007BA00831300087006031DF82B59081C3E840099
:1007CA0088300318013EFF000A128A1500200A1217
:1007DA008A11F0007008D700D801F82B5908503E4A
:1007EA008400831380010130F0007008D907A42B1C
:1007FA0057080800831203134408CA004508CB00AF
:10080A004608CC0003104B0D4C0DCD004D08CE0010
:10081A004E08031D172C0030C4000030C5000030FC
:10082A00C60008004708CA004808CB004908CC009F
:10083A0003104B0D4C0DCD004D08D3005308031D7A
:10084A002D2C0030C4000030C5000030C60008005E
:10085A0053087B3ECA004A08CE074408CA00450826
:10086A00CB004608CC0010300310CC0CCB0CCA0CC1
:10087A00FF3E031D392C4A08CD004D08D300470816
:10088A00CA004808CB004908CC0010300310CC0C31
:10089A00CB0CCA0CFF3E031D4B2C4A08CD004D0859
:1008AA00D3068030CA004A08D305C517C817FF30D7
:1008BA00C705FF30C8050030C9050030CF00003039
:1008CA00D0000030D1000730CA004A08D200441CC8
:1008DA007C2C4708CF07480803110318480A031D50
:1008EA00D007490803110318490A031DD10701302B
:1008FA000310C60CC50CC40CFF3E031D7D2C013031
:10090A000310C70DC80DC90DFF3E031D852C01300C
:10091A00D202031D6C2C0930CA004A08D200441CBA
:10092A00A42C4708CF07480803110318480A031DD7
:10093A00D007490803110318490A031DD1070130DA
:10094A000310C60CC50CC40CFF3E031DA52C0130B8
:10095A000310D10CD00CCF0CFF3E031DAD2C01307F
:10096A00D202031D942C4F08F0005008F1005108E0
:10097A00F2004E08CA004A08F3005308CB004B089D
:10098A00F4000A128A116F22700883120313C4003A
:10099A007108C5007208C600080083120313D0004C
:1009AA004630C8004808CB004508C9004408C800BA
:1009BA00C40A0319C50A4908FF00480884000A1234
:1009CA008A1500200A128A11CA004A08D100510861
:1009DA000319B52D253051060319FF2C5108C800FB
:1009EA00500884004808831380000130C800480872
:1009FA00D007D92CCC014508C9004408C800C40A4C
:100A0A000319C50A4908FF00480884000A128A1512
:100A1A0000200A128A11D100003A0319B52D643A4E
:100A2A0003191B2D0D3A03191B2DD92C4B088400D1
:100A3A0083130008CE00840A0008CF000230C800E1
:100A4A004808CB07CF1F322D0330C8004808CC0412
:100A5A00CE09CF09CE0A0319CF0AD101D10A05302E
:100A6A00510603195D2D5108C8004807123E84003B
:100A7A0088300318013EFF000A128A1500200A1264
:100A8A008A11C9000A128A1500200A128A11CA009C
:100A9A004A084F02031D532D49084E02031C5D2DBF
:100AAA000130C8004808D10705305106031D382D0A
:100ABA004C08033903196C2D2D30C80050088400E6
:100ACA004808831380000130C8004808D00751083D
:100ADA00C8004808CD00FF30C8004808CD074D0AB5
:100AEA000319D92C0A30F8000030F9004D08C80063
:100AFA004807123E840088300318013EFF000A129C
:100B0A008A1500200A128A11F0000A128A1500209A
:100B1A000A128A11F1004F08F3004E08F2000A1275
:100B2A008A1150210A128A117108FB007008FA0012
:100B3A000A128A11E5200A128A117808303E8312B5
:100B4A000313C9004908D1005108C800500884009D
:100B5A004808831380000130C8004808D007702D68
:100B6A005008840083138001080083160313880148
:100B7A00FF30850086170A128A1146200A128A1146
:100B8A000A128A1113220A128A110A128A15D62700
:100B9A000A128A110A128A15E9270A128A11F4011D
:100BAA00F40A01300A128A11C9210A128A118F30F5
:100BBA00F5008830F6000A128A118C210A128A116D
:100BCA00F401F40A02300A128A11C9210A128A119E
:100BDA00C230F5008830F6000A128A118C210A12F6
:100BEA008A114D3083120313E4001930E3004F30A9
:100BFA00E200E20BFE2DE30BFE2DE40BFE2DF401C9
:100C0A00F40A01300A128A11C9210A128A11A03083
:100C1A00F5008830F6000A128A118C210A128A110C
:100C2A00F401F40A02300A128A11C9210A128A113D
:100C3A004B30F5008830F6000A128A118C210A120C
:100C4A008A110A128A15F4270A128A11031C042E21
:100C5A000A128A15E9270A128A1100300A128A1121
:100C6A00B5200A128A11710883120313A9007008A9
:100C7A00A80001300A128A11B5200A128A117108D5
:100C8A0083120313A7007008A6002908F900280890
:100C9A00F8000A128A1158200A128A117808831257
:100CAA000313C7007908C8007A08C9003730C4009E
:100CBA00FA30C5003E30C6000A128A11FF230A1212
:100CCA008A11831203134408D4004508D500460844
:100CDA00D6000A128A11DB220A128A11831203131E
:100CEA005508A9005408A800003029022330031926
:100CFA002802031C8C2EF401F40A01300A128A110C
:100D0A00C9210A128A11D330F5008830BC2EF401A9
:100D1A00F40A01300A128A11C9210A128A11EE3024
:100D2A00F5008830F6000A128A118C210A128A11FB
:100D3A00083083120313E2006208F40001300A1239
:100D4A008A11C9210A128A11173083120313C400A7
:100D5A008930C5002908C7002808C6003A300A1297
:100D6A008A11D2240A128A113A30F5000030F600AC
:100D7A000A128A118C210A128A1101308312031372
:100D8A0027025E3003192602031CD72EF401F40A47
:100D9A0002300A128A11C9210A128A117E30F5001C
:100DAA008830072FF401F40A02300A128A11C92185
:100DBA000A128A11E330F5008830F6000A128A1105
:100DCA008C210A128A110B3083120313E200620883
:100DDA00F40002300A128A11C9210A128A111B3040
:100DEA0083120313C4008930C5002708C7002608E8
:100DFA00C60030300A128A11D2240A128A113030FF
:100E0A00F5000030F6000A128A118C210A128A11A2
:100E1A0083120313861B322E023083120313E4005B
:100E2A004530E300A930E200E20B192FE30B192F3A
:100E3A00E40B192F83120313861B322E0A128A150A
:100E4A00E9270A128A11F401F40A01300A128A11F6
:100E5A00C9210A128A116D30F5008830F6000A128B
:100E6A008A118C210A128A117E300A128A110520EF
:100E7A000A128A110A128A1111200A128A11031CF3
:100E8A003F2FF401F40A01300A128A11C9210A1209
:100E9A008A11B130F5008830F6000A128A118C21C5
:100EAA000A128A11023083120313E4004530E30068
:100EBA00A930E200E20B5F2FE30B5F2FE40B5F2FF9
:100ECA003A300A128A116C200A128A110D300A125B
:100EDA008A1105200A128A110A300A128A1105207B
:100EEA000A128A110A128A111D200A128A11031C77
:100EFA00772FF401F40A01300A128A11C9210A1261
:100F0A008A112830F5008830F6000A128A118C21DD
:100F1A000A128A11023083120313E4004530E300F7
:100F2A00A930E200E20B972FE30B972FE40B972FE0
:100F3A0030300A128A116C200A128A110D300A12F4
:100F4A008A1105200A128A110A300A128A1105200A
:100F5A000A128A110A128A15F4270A128A11031C24
:100F6A00AF2FF401F40A01300A128A11C9210A12B8
:100F7A008A115C30F5008830F6000A128A118C2139
:100F8A000A128A11F401F40A02300A128A11C921DA
:100F9A000A128A113A30F5008830F6000A128A11CC
:100FAA008C210A128A111A3083120313E4005E306C
:100FBA00E3006D30E200E20BE02FE30BE02FE40BDD
:100FCA00E02FE72F2D2E8313AC30FD000030FE00FA
:100FDA002930FF00A03084000A128A1139200A122F
:100FEA008A112030840044300A128A15CE278301E0
:100FFA000A128A11BA2DFF1B0A2883137F18831736
:10100A000008840A0319FF0A08007F087F398A004A
:10101A000408840A0319FF0A8200013400340A34DE
:10102A00003464340034E83403341034273401348F
:10103A0002340334043405340634053404340534E4
:10104A000434043405342034733465346E3464341F
:10105A0069346E34673420346734613473342E341F
:10106A002E342E34203420340034203420342034DA
:10107A0020342034203420342034203420342034C6
:10108A0020342034203420342034003420342034D6
:10109A00203449344F34543420344D344F3444349A
:1010AA0045344D3420342034203420340034203464
:1010BA00203420342034553470346C346F34613425
:1010CA0064346534643420342034203420340034C9
:1010DA0020342034553470346C346F3461346434C1
:1010EA0069346E3467342E342E342E34203420344E
:1010FA000034203420344834693467346834203466
:10110A004D3465347434683461346E346534203453
:10111A00203400342034483461347A3461347234EF
:10112A0064346F34753473342034673461347334FF
:10113A00203420340034203449346E346934743411
:10114A00693461346C3469347A3469346E3467349E
:10115A002E342E342E3400342034733465346E34F5
:10116A00643469346E3467342034743465346D34CD
:10117A0070342E342E342E340034443465347434AE
:10118A0065346334743469346F346E3420346234B1
:10119A007934203449344F3454340034483449348F
:1011AA00473448342034543445344D345034203490
:1011BA002034203420342034203400344D34653433
:1011CA007434683461346E34653420343D342034E8
:1011DA000034543445344D34503420343A342034B5
:1011EA000034743465346D3470343A3400347034F5
:1011FA007234653473343A340034523445344134E9
:10120A004434593400346C346F346E343A34003414
:10121A006734613473343A3400346C34613474346E
:10122A003A340034253464342034003425346434A8
:02123A0000347E
:101F9C0064008001840A0406031900340406CF2F60
:101FAC008130831203139F00C030831603139F00EC
:101FBC00080083120313981CE52F181218168C1E98
:101FCC00E52F1A08080000300A128A119B200A1209
:101FDC008A1501300A128A119B2008000A128A11F4
:101FEC0069230A128A15063A0319FE2F03100800FA
:041FFC0003140800C2
:02400E003A3F37
:00000001FF
