:060000000A128A11122809
:10000800FE00030EF8000408F9000A08FA0083123B
:1000180003137F08FB000A128A15232D0A128A117E
:1000280015288313BC30FD000430FE00F330FF00B8
:10003800B03084000A128A15B1230A128A11A0303E
:100048008400B0300A128A152423EB01EC01ED017B
:10005800EE01FC01FD0183010A128A11332883167F
:100068000313061786170610831203130610FF30B2
:1000780083160313850088010A128A159E230A1223
:100088008A11283083160313810083120313810118
:10009800C0308B000A128A153E260A128A110A12EB
:1000A8008A15BE230A128A110A128A152C230A12EB
:1000B8008A110A128A153F230A128A11831203131E
:1000C800A401A40A01300A128A15EC250A128A1121
:1000D8004A3083120313A5008530A6000A128A1538
:1000E80062250A128A1183120313A401A40A02309A
:1000F8000A128A15EC250A128A11B03083120313EA
:10010800A5008530A6000A128A1562250A128A11EE
:10011800333083120313CC00BB30CB00DF30CA006E
:10012800CA0B9428CB0B9428CC0B94280A128A1556
:100138003F230A128A1183120313A401A40A01306F
:100148000A128A15EC250A128A11C1308312031388
:10015800A5008530A6000A128A1562250A128A119E
:1001680083120313A401A40A02300A128A15EC258B
:100178000A128A11393083120313A5008530A600AC
:100188000A128A1562250A128A110A128A154A2346
:100198000A128A11031C9F280A128A153F230A1281
:1001A8008A1100300A128A1541240A128A11831210
:1001B80003132108EC002008EB0001300A128A150D
:1001C80041240A128A118312031321088316031388
:1001D800AD0083120313200883160313AC008312A7
:1001E80003136C08A9006B08A8000A128A15E823F3
:1001F8000A128A11831203132808AF002908B000D5
:100208002A08B1003730AC00FA30AD003E30AE00FD
:100218000A128A152D270A128A11831203132C0831
:10022800BC002D08BD002E08BE000A128A159F26A4
:100238000A128A11831203133D08EC003C08EB00F4
:1002480000306C02233003196B02031C4429A401FB
:10025800A40A01300A128A15EC250A128A110930FB
:1002680083120313A5008630A6000A128A15622598
:100278000A128A110A128A15A3250A128A118029DC
:1002880083120313A401A40A01300A128A15EC256B
:100298000A128A112D3083120313A5008630A60096
:1002A8000A128A1562250A128A110530831203136D
:1002B800CA004A08A40001300A128A15EC250A125D
:1002C8008A11403083120313AE008630AF006C08E9
:1002D800B1006B08B0004D300A128A1148260A1284
:1002E8008A114D3083120313A5000030A6000A12AC
:1002F8008A1562250A128A11831203136E087D0675
:10030800031D88296D087C060319D9290A30CA00FB
:100318004A08A40001300A128A15EC250A128A112B
:10032800283083120313A5008630A6000A128A1506
:1003380062250A128A110E3083120313CA004A0872
:10034800A40001300A128A15EC250A128A113C30E1
:1003580083120313AE008630AF006E08B1006D083B
:10036800B00061300A128A1148260A128A116130D7
:1003780083120313A5000030A6000A128A1562250D
:100388000A128A11831203136E08FD006D08FC001F
:1003980000306E028C3003196D02031C172A0A12F2
:1003A8008A15A3250A128A11172A0A308312031301
:1003B800CA004A08A40001300A128A15EC250A125C
:1003C8008A11283083120313A5008630A6000A126A
:1003D8008A1562250A128A110E3083120313CA0085
:1003E8004A08A40001300A128A15EC250A128A115B
:1003F8003C3083120313AE008630AF007D08B10095
:100408007C08B00061300A128A1148260A128A1143
:10041800613083120313A5000030A6000A128A1562
:1004280062250A128A110030831603132D021A302E
:1004380003192C02031C822A0130AA070318AB0AED
:100448000030AB0783120313A401A40A02300A1276
:100458008A15EC250A128A11343083120313A50079
:100468008530A6000A128A1562250A128A110530FB
:1004780083120313CA004A08A40002300A128A151C
:10048800EC250A128A11103083120313A500863056
:10049800A6000A128A1562250A128A110A308312E6
:1004A8000313CA004A08A40002300A128A15EC2570
:1004B8000A128A113C3083120313AE008630AF0053
:1004C800831603132B0883120313B1008316031337
:1004D8002A0883120313B00057300A128A114826DB
:1004E8000A128A11573083120313A5000030A600A0
:1004F8000A128A1562250A128A11E12A8312031345
:10050800A401A40A02300A128A15EC250A128A11DB
:10051800343083120313A5008530A6000A128A1509
:1005280062250A128A11053083120313CA004A0889
:10053800A40002300A128A15EC250A128A1110301A
:1005480083120313A5008630A6000A128A156225B5
:100558000A128A110A3083120313CA004A08A40037
:1005680002300A128A15EC250A128A113C308312CD
:100578000313AE008630AF00831603132B088312D3
:100588000313B100831603132A0883120313B00060
:1005980057300A128A1148260A128A1157308312D4
:1005A8000313A5000030A6000A128A1562250A1254
:1005B8008A1183160313AA01AB0183120313861B46
:1005C800D528023083120313CC004530CB00A93064
:1005D800CA00CA0BED2ACB0BED2ACC0BED2A8312ED
:1005E8000313861BD5280A128A153F230A128A117B
:1005F80083120313A401A40A01300A128A15EC25F8
:100608000A128A116C3083120313A5008530A600E4
:100618000A128A1562250A128A117E300A128A1570
:1006280056230A128A110A128A1562230A128A119B
:10063800031C172B83120313A401A40A01300A1206
:100648008A15EC250A128A11D23083120313A500E9
:100658008530A6000A128A1562250A128A1102300C
:1006680083120313CC004530CB00A930CA00CA0B53
:100678003B2BCB0B3B2BCC0B3B2B4D30831203136B
:10068800A1000030A2000A128A151C240A128A113D
:100698000D300A128A1556230A128A110A300A12D4
:1006A8008A1556230A128A110A128A156E230A120B
:1006B8008A11031C582B83120313A401A40A0130C6
:1006C8000A128A15EC250A128A117D308312031347
:1006D800A5008530A6000A128A1562250A128A1119
:1006E800023083120313CC004530CB00A930CA0076
:1006F800CA0B7C2BCB0B7C2BCC0B7C2B6130831255
:100708000313A1000030A2000A128A151C240A1241
:100718008A110D300A128A1556230A128A110A30D4
:100728000A128A1556230A128A110A128A157A237E
:100738000A128A11031C992B83120313A401A40A19
:1007480001300A128A15EC250A128A11E330831245
:100758000313A5008530A6000A128A1562250A121D
:100768008A11023083120313CC004530CB00A93024
:10077800CA00CA0BBD2BCB0BBD2BCC0BBD2B5730E6
:1007880083120313A1000030A2000A128A151C2448
:100798000A128A110D300A128A1556230A128A1172
:1007A8000A300A128A1556230A128A110A128A1561
:1007B80086230A128A11031CDA2B83120313A4015D
:1007C800A40A01300A128A15EC250A128A119F30F0
:1007D80083120313A5008530A6000A128A15622524
:1007E8000A128A11023083120313CC004530CB0061
:1007F800A930CA00CA0BFE2BCB0BFE2BCC0BFE2B51
:10080800FF3083120313A1008530A2000A128A1553
:100818001C240A128A110A128A1592230A128A11B2
:10082800031C0F2C83120313A401A40A01300A121B
:100838008A15EC250A128A118E3083120313A5003B
:100848008530A6000A128A1562250A128A1102301A
:1008580083120313CC004530CB00A930CA00CA0B61
:10086800332CCB0B332CCC0B332CF43083120313E7
:10087800A1008530A2000A128A151C240A128A11C6
:100888000A128A154A230A128A11031C442C83125D
:100898000313A401A40A01300A128A15EC250A12CE
:1008A8008A115B3083120313A5008530A6000A1253
:1008B8008A1562250A128A1183120313A401A40A55
:1008C80002300A128A15EC250A128A11283083127E
:1008D8000313A5008530A6000A128A1562250A129C
:1008E8008A111A3083120313CC005E30CB006D30AE
:1008F800CA00CA0B7D2CCB0B7D2CCC0B7D2C842CF9
:10090800D02883120313230803198F2C22082104EB
:100918002004031DA22C0030A0000030A1000030EC
:10092800A20008000130A5002508A3070130031024
:10093800A20CA10CA00CFF3E031D9B2CFE3022052F
:100948000319BD2C962C0130A5002508A3070130FA
:10095800A007003003180130A10700300318013048
:10096800A20701300310A20CA10CA00CFF3E031D2E
:10097800B62CFF3022050319CC2CA72C0130A3027A
:1009880001300310A00DA10DA20DFF3E031DC52CC3
:10099800A11BD22C023023020318C22C2318DA2CF4
:1009A800FF30A0057F30A105FF30A2050310A30C7E
:1009B8002308A500A601A70110300310A50DA60D58
:1009C800A70DFF3E031DE12C2508A0042608A1045D
:1009D8002708A204240803190800A21708001634DF
:1009E8008634443486341C3486343734863432347E
:0609F8008634223486342F
:100A0000FF1B0A2D83137F1883170008840A03191C
:100A1000FF0A08007F087F398A000408840A031946
:100A2000FF0A8200013400340A3400346434003494
:100A3000E8340334103427340134023403340434EA
:100A400005340634053403340534043404340534E1
:100A500020342034203420342034203420342034F6
:100A600020342034203420342034203420342034E6
:100A7000003420342034203449344F34543420346A
:100A80004D344F34443445344D34203420342034F4
:100A9000203400342034203420342034203457349F
:100AA00041344B34453420345534503420342034D0
:100AB0002034203400342034203420342034553481
:100AC00070346C346F34613464346534643420348D
:100AD0002034203420340034203420345534703411
:100AE0006C346F346134643469346E3467342E345A
:100AF0002E342E34203420340034203473346534C2
:100B00006E34643469346E3467342034683472343B
:100B10002E342E342E3420342034003420347334D8
:100B200065346E34643469346E34673420346C3424
:100B30006F346E342E342E342E342034003420346E
:100B4000733465346E34643469346E3467342034FD
:100B50006C34613474342E342E342E34203400340A
:100B600020345334543452344F344B3445342034CD
:100B700050345234453444344934433454342034AA
:100B80000034203449346E34693474346934613447
:100B90006C3469347A3469346E3467342E342E34CC
:100BA0002E3400342034733465346E346434693444
:100BB0006E3467342034743465346D3470342E34BC
:100BC0002E342E3400342034733465346E3464345F
:100BD00069346E346734203470347234653473345D
:100BE0002E342E342E340034303438343034313412
:100BF00033342E34353434340D340A340034313443
:100C00003334303431342E34353431340D340A3405
:100C100000344834493447344834203454340034A0
:100C20005234523420343A3420340034743465342D
:100C30006D3470343A340034703472346534733443
:100C40003A34003452344534413444345934003455
:100C5000483420343A3420340034543420343A3484
:100C6000203400346C346F346E343A3400346C34D5
:100C7000613474343A34003425346434203400341C
:100C80002534753420340034683472343A340034F6
:100C900083120313BA003030B2003208B6002F08B6
:100CA000B3002E08B200AE0A0319AF0A3308FF00E2
:100CB000320884000A128A1100250A128A11B4002F
:100CC0003408BB003B080319422F25303B060319AB
:100CD000752E3B08B2003A08840032088313800066
:100CE0000130B2003208BA074F2EB701792E3717FC
:100CF000972E2F08B3002E08B200AE0A0319AF0AD0
:100D00003308FF00320884000A128A1100250A12F3
:100D10008A11BB00003A0319422F643A0319972E37
:100D20000D3A0319972E1C3A0319772E4F2E371BB5
:100D3000B12E3608840083130008B800840A000826
:100D4000B9000230B2003208B607B91FBD2E033019
:100D5000B2003208B704B809B909B80A0319B90AC8
:100D6000BD2E3608840083130008B800840A0008EA
:100D7000B9000230B2003208B607BB01BB0A053029
:100D80003B060319E82E3B08B2003207123E8400EE
:100D900085300318013EFF000A128A1100250A124D
:100DA0008A11B3000A128A1100250A128A11B400AE
:100DB00034083902031DDE2E33083802031CE82EE6
:100DC0000130B2003208BB0705303B06031DC32EBD
:100DD000370803390319F72E2D30B2003A08840082
:100DE0003208831380000130B2003208BA073B0892
:100DF000B2003208B500FF30B2003208B507350A3C
:100E000003194F2E0A30A8000030A9003508B2009F
:100E10003207123E840085300318013EFF000A129B
:100E20008A1100250A128A11A0000A128A110025CF
:100E30000A128A11A1003908A3003808A2000A1278
:100E40008A15E5240A128A11831203132108AB00C4
:100E50002008AA000A128A1574240A128A11831221
:100E600003132808303EB3003308BB003B08B20030
:100E70003A0884003208831380000130B20032083F
:100E8000BA07FB2E3A088400831380010800303033
:100E9000840083160313200883138000840A21082A
:100EA0008000840A22088000840A23088000840AC3
:100EB00024088000840A2508800024308400B03093
:100EC00083120313A0000408A1000C30A200200824
:100ED000840083130008A300A00A210884002308CB
:100EE0008000A10AA20B672FB801B80A38080319BD
:100EF000DD2F0A128A1535230A128A118312031371
:100F0000A0002008B600B901063039020318762F78
:100F10003908A0002007243E840083130008A100A4
:100F2000840A0008A2003908303E84000008210726
:100F3000840022080318220AFF000A128A110025E1
:100F40000A128A113606031DD32F0130A00039087A
:100F5000303E84002008831380073908223E840035
:100F600085300318013EFF000A128A1100250A127B
:100F70008A11A0003908303E84008313000820063F
:100F8000031DD82F39081C3E840085300318013E0C
:100F9000FF000A128A1100250A128A11A0002008F7
:100FA000B700B801D82F3908303E84008313800180
:100FB0000130A0002008B907842F37080800F40189
:100FC000F501701CE92F7208F4070318F50A73087D
:100FD000F50701300310F20DF30DFF3E031DEA2F5C
:100FE00001300310F10CF00CFF3E031DF12F7008CF
:100FF0007104031DE12F7508F1007408F00008006A
:1016480064008001840A0406031900340406252B6B
:101658008130831203139F00C030831603139F0049
:10166800080083120313981C3B2B181218168C1EA3
:101678003B2B1A08080000300A128A1500240A12A7
:101688008A1501300A128A15002408000A128A11E4
:1016980047270A128A15063A0319542B0310080023
:1016A8000314080083120313A0000C1E592B2008F2
:1016B800990083160313981808005D2B0A128A11E3
:1016C80047270A128A15013A03196C2B03100800E0
:1016D800031408000A128A1147270A128A15023AC7
:1016E8000319782B03100800031408000A128A1142
:1016F80047270A128A15033A0319842B0310080096
:10170800031408000A128A1147270A128A15043A94
:101718000319902B03100800031408000A128A11F9
:1017280047270A128A15053A03199C2B031008004B
:1017380003140800831203138F018E010C109010FC
:1017480010169016831603130C1483120313101427
:1017580008007E088A007F088200AD230A128A15D5
:101768008000840A04087D0603190034FF0A03195F
:10177800FE0AB12B831603130713871781309900CC
:101788001815181283120313981783160313981643
:10179800831203131816080083120313A000201CD9
:1017A800D72B0816D82B0812A01CDC2B8816DD2B8B
:1017B8008812201DE12B0817E22B0813A01DE62B29
:1017C8008817080088130800831203132808A0004C
:1017D8002908A100A2018E30AB002B08A300A401A8
:1017E8000A128A118524831203132008A8002108ED
:1017F800A9002208AA00080083120313A3000811F5
:1018080023080A128A15D0230A128A158312031391
:1018180088151A3083120313A200F730A100A10B18
:10182800132CA20B132C182C8312031388110800F5
:10183800831203132208FF00210884000A128A1168
:1018480000250A128A15003A0319080083120313A7
:101858002208FF00210884000A128A1100250A12B2
:101868008A150A128A1556230A128A15013083121C
:101878000313A1070318A20A1C2C83120313A40044
:1018880008302402031C4B2CA001A1010800C5301C
:10189800A20022089F052408A20002300310A20D0E
:1018A800FF3E031D522C0310220DA30023089F04A2
:1018B8000D3083120313A300FB30A200A20B622C8D
:1018C800A30B622C831203131F151F19692C1E0802
:1018D800A100831603131E0883120313A000080037
:1018E80083120313280829040319A32CAD01AD0A98
:1018F800A91B8A2C01300310A80DA90DFF3E031D5A
:101908007F2C0130AC002C08AD077C2C29082B0259
:10191800031D902C28082A02031C982C2808AA02C8
:101928002908031CAB03AB0201300310A90CA80C57
:10193800FF3E031D992C0130AD02031D8A2C2B0894
:10194800A9002A08A800080083120313A400240889
:101958000F39A1002108A2002408F039A1002108AC
:10196800A30008152308A10004300310A10CFF3EB2
:10197800031DB92C21080A128A15D0230A128A15C8
:10198800831203138815413083120313A100A10B9E
:10199800CB2CCE2C83120313881122080A128A1525
:1019A800D0230A128A158312031388154130831233
:1019B8000313A100A10BDE2CE12C83120313881161
:1019C800080083120313A501A601200821040319A6
:1019D8001E2DA701A70AA11BFD2C01300310A00D85
:1019E800A10DFF3E031DF22C0130A4002408A70717
:1019F800EF2C01300310A50DA60DFF3E031DFE2C94
:101A080021082302031D0A2D20082202031C132D7E
:101A18002008A2022108031CA303A30225140130F5
:101A28000310A10CA00CFF3E031D142D0130A702CA
:101A3800031DFD2C2608A1002508A00008000C1C89
:101A4800562D0C10013083160313AE070318AF0A86
:101A58000030AF075F302E062F04031D562D83126A
:101A680003130108F600F7017608ED007708EE0089
:101A78006E08F1006D08F0000630F2000030F30047
:101A88000A128A11DF270A128A15710883120313B2
:101A9800EE007008ED0083160313AE01AF01831248
:101AA800031381017B088312FF007A088A007908F2
:101AB8008400780E8300FE0E7E0E09008312031345
:101AC800AA01AB012A082507A8002608A7000318C1
:101AD800A70AAA1BA703831203132708A90029082A
:101AE800FF00280884000A128A1100250A128A15A4
:101AF800003A031908002A082507A8002608A700A5
:101B08000318A70AAA1BA703831203132708A9000F
:101B18002908FF00280884000A128A1100250A12E1
:101B28008A150A128A15A8240A128A150130831206
:101B38000313AA070318AB0A0030AB07662D8312FC
:101B4800031306140D3083120313A200AF30A10053
:101B5800B530A000A00BAE2DA10BAE2DA20BAE2D63
:101B6800B52D8312031306100D3083120313A20040
:101B7800AF30A100B530A000A00BC02DA10BC02D27
:101B8800A20BC02DC72D8312031306140D30831228
:101B98000313A200AF30A100B530A000A00BD22DD6
:101BA800A10BD22DA20BD22DD92D8312031306100F
:101BB8000D3083120313A200AF30A100B530A0008E
:101BC800A00BE42DA10BE42DA20BE42DEB2D0800B6
:101BD80083120313A7002703031D152E24087F3E35
:101BE800A5002508AA002A08A50004300310A50CA2
:101BF800FF3E031DFA2D2508A6002608A8002A087E
:101C08000F39A5002508A90028080A128A150024FA
:101C18000A128A158312031329080A128A15002446
:101C280008000230831203132706031D0800240846
:101C3800BF3EA5002508AA002A08A5000430031005
:101C4800A50CFF3E031D232E2508A6002608A80084
:101C58002A080F39A5002508A90028080A128A159C
:101C680000240A128A158312031329080A128A15F6
:101C78000024080000300A128A15D0230A128A1597
:101C8800823083120313A500DD30A400A40B4A2E72
:101C9800A50B4A2E03300A128A1500240A128A1547
:101CA800213083120313A5007530A400A40B5A2E0B
:101CB800A50B5A2E5F2E03300A128A1500240A1229
:101CC8008A15483083120313A5006B30A400A40BB7
:101CD8006B2EA50B6B2E702E03300A128A1500246A
:101CE8000A128A1502300A128A1500240A128A1565
:101CF80002300A128A1500240A128A1508300A12BC
:101D08008A1500240A128A1500300A128A1500243E
:101D18000A128A150C300A128A1500240A128A152A
:101D280000300A128A1500240A128A1506300A128F
:101D38008A1500240800831203133C08C0003D08DC
:101D4800C1003E08C2000310410D420DC300430804
:101D5800C9004908031DB92E0030BF000030BE007D
:101D68000030BD000030BC0008003C08C0003D0841
:101D7800C1003E08C20017300310C20CC10CC00CD1
:101D8800FF3E031DC02E4008C3004308C400BD1712
:101D9800FF30BC05FF30BD050030BE053C08C5005E
:101DA8003D08C6003E08C700C8018E30C902C91FD9
:101DB800FB2E4908803A8F3E0318EB2E0030BF00F7
:101DC8000030BE000030BD000030BC00080001300B
:101DD8000310C80CC70CC60CC50CFF3E031DEC2E27
:101DE8000130C0004008C9070319162FEB2E183020
:101DF8004902031C132F0030BF000030BE00003022
:101E0800BD000030BC0008000130C0000310C50D43
:101E1800C60DC70DC80DC00B0A2F0130C9024908ED
:101E2800031D082F44080319242FC509C609C7092B
:101E3800C809C50A0319C60A0319C70A0319C80A33
:101E48004808BF004708BE004608BD004508BC005A
:101E58000800831203132C08B2002D08B3002E08C3
:101E6800B4000310330D340DB5003508B60036083C
:101E7800031D452F0030AC000030AD000030AE002F
:101E880008002F08B2003008B3003108B40003106E
:101E9800330D340DB5003508BB003B08031D5B2F1F
:101EA8000030AC000030AD000030AE0008003B0848
:101EB8007B3EB2003208B6072C08B2002D08B300EA
:101EC8002E08B40010300310B40CB30CB20CFF3E53
:101ED800031D672F3208B5003508BB002F08B20074
:101EE8003008B3003108B40010300310B40CB30C40
:101EF800B20CFF3E031D792F3208B5003508BB062A
:101F08008030B2003208BB05AD17B017FF30AF05FF
:101F1800FF30B0050030B1050030B7000030B80020
:101F28000030B9000730B2003208BA002C1CAA2FC2
:101F38002F08B707300803110318300A031DB80724
:101F4800310803110318310A031DB90701300310C2
:101F5800AE0CAD0CAC0CFF3E031DAB2F01300310D3
:101F6800AF0DB00DB10DFF3E031DB32F0130BA0206
:101F7800031D9A2F0930B2003208BA002C1CD22F48
:101F88002F08B707300803110318300A031DB807D4
:101F9800310803110318310A031DB9070130031072
:101FA800AE0CAD0CAC0CFF3E031DD32F013003105B
:101FB800B90CB80CB70CFF3E031DDB2F0130BA0279
:101FC800031DC22F3708A0003808A1003908A20055
:101FD8003608B2003208A3003B08B3003308A40057
:101FE8000A128A118524831203132008AC002108E1
:081FF800AD002208AE00080054
:02400E003A3F37
:00000001FF
