:060000000A128A11122809
:10000800FE00030EF1000408F2000A08F300831250
:1000180003137F08F4000A128A15A42F0A128A1102
:100028001528F701F80183135F3084006C300A1239
:100038008A15F0260A128A11A0308400BE300A12EE
:100048008A15F02683010A128A112A2883160313B7
:100058008801FF30850006108610831203130610EE
:1000680086100A128A110B260A128A110A128A1598
:100078003A270A128A110A128A15F8260A128A11D0
:100088008B170B170A128A150B270A128A1183126B
:100098000313A201A20A01300A128A116C260A125D
:1000A8008A111C3083120313A3008030A4000A12A3
:1000B8008A11BE260A128A1183120313A201A20A08
:1000C80002300A128A116C260A128A110B30831226
:1000D8000313A3008030A4000A128A11BE260A1254
:1000E8008A11333083120313DB00BB30DA00DF30B0
:1000F800D900D90B7D28DA0B7D28DB0B7D280A1265
:100108008A150B270A128A1100300A128A15CF277E
:100118000A128A11760883120313E4007508E300B3
:1001280001300A128A15CF270A128A11760883121B
:100138000313E0007508DF006408A9006308A8003D
:100148000A128A1522270A128A1183120313280811
:10015800BE002908BF002A08C000DB30BB00F93008
:10016800BC003E30BD000A128A1146220A128A11CA
:10017800831203133B08CB003C08CC003D08CD009C
:100188000A128A1190240A128A11831203134C0846
:10019800E4004B08E3005E30D9005908AC0064085D
:1001A800AE006308AD00B4300A128A1119230A128E
:1001B8008A11831203136008A9005F08A8000A12B5
:1001C8008A1522270A128A11831203132808AE00FF
:1001D8002908AF002A08B000C030AB007F30AC005F
:1001E8004430AD000A128A11D8230A128A118312E8
:1001F80003132B08BE002C08BF002D08C0000030D8
:10020800BB00C830BC004230BD000A128A11462229
:100218000A128A11831203133B08CB003C08CC0056
:100228003D08CD000A128A1190240A128A118312FD
:1002380003134C08E2004B08E1000A128A11E52773
:100248000A128A110A128A156C270A128A11831255
:1002580003136B03031D67290A128A113D270A122B
:100268008A11831203136A08D9005908E7000A1291
:100278008A113D270A128A11831203136A08D900CA
:100288005908E6000A128A113D270A128A118312B8
:1002980003136A08D9005908E9000A128A113D2790
:1002A8000A128A11831203136A08D9005908E80050
:1002B8000A128A113D270A128A11831203136A0847
:1002C800D9005908E500003064022330031963029D
:1002D800031C842931300A128A1516270A128A113A
:1002E80083120313A201A20A01300A128A116C2692
:1002F8000A128A11673083120313A30080309329EE
:1003080083120313A201A20A01300A128A116C2671
:100318000A128A11B43083120313A3000030A40018
:100328000A128A11BE260A128A113C30831203135C
:100338006702031CB72931300A128A1516270A12D8
:100348008A110A3083120313D9005908A200013018
:100358000A128A116C260A128A114B30831203136F
:10036800A3008030F5298312031367086607D900B4
:10037800DA01DA0D69085907DB000030031801308B
:100388005A07DC0068085B07DD00003003180130FD
:100398005C07DE0065085D065E04031DFB290A3064
:1003A800D9005908A20001300A128A116C260A12D3
:1003B8008A11553083120313D9005908AC00670815
:1003C800DA00DB015A08AD005B08AE00AA300A1259
:1003D8008A1119230A128A11AA3083120313A3005F
:1003E8000030A4000A128A11BE260A128A110030AF
:1003F8008312031362023330031961020318162AA9
:1004080031300A128A1516270A128A118312031329
:10041800A201A20A02300A128A116C260A128A1153
:100428003C30212A83120313A201A20A02300A12C5
:100438008A116C260A128A112D3083120313A30025
:100448008030A4000A128A11BE260A128A110030CE
:1004580083120313640228300319630203188828DF
:1004680000306202333003196102031C88283C30D3
:1004780067020318882830300A128A1516270A12CC
:100488008A118828831203133B08C1003C08C20064
:100498003D08C3000310420D430DC4004408C500C5
:1004A8004508031D5E2A0030BB000030BC00003048
:1004B800BD0008003E08C1003F08C2004008C30054
:1004C8000310420D430DC4004408CA004A08031D26
:1004D800742A0030BB000030BC000030BD000800AA
:1004E8004A087B3EC1004108C5073B08C1003C08DB
:1004F800C2003D08C30010300310C30CC20CC10C6D
:10050800FF3E031D802A4108C4004408CA003E0873
:10051800C1003F08C2004008C30010300310C30CDC
:10052800C20CC10CFF3E031D922A4108C4004408B6
:10053800CA068030C1004108CA05BC17BF17FF3082
:10054800BE05FF30BF050030C0050030C6000030D2
:10055800C7000030C8000730C1004108C9003B1C73
:10056800C32A3E08C6073F08031103183F0A031DA4
:10057800C707400803110318400A031DC8070130C4
:100588000310BD0CBC0CBB0CFF3E031DC42A01307C
:100598000310BE0DBF0DC00DFF3E031DCC2A013058
:1005A800C902031DB32A0930C1004108C9003B1C18
:1005B800EB2A3E08C6073F08031103183F0A031D2C
:1005C800C707400803110318400A031DC807013074
:1005D8000310BD0CBC0CBB0CFF3E031DEC2A013004
:1005E8000310C80CC70CC60CFF3E031DF42A0130CB
:1005F800C902031DDB2A4608A0004708A1004808D5
:10060800A2004508C1004108A3004A08C2004208E8
:10061800A4000A128A119D25831203132008BB0027
:100628002108BC002208BD00080083120313B7008C
:100638002D30AF002F08B3000130AC07FF302C0776
:1006480084000A128A1128250A128A11AF002F087D
:10065800B80038080319D32B25303806031D362B6C
:10066800B201472B3808AF00370884002F088313DE
:1006780080000130AF002F08B707202BC030AF0033
:100688002F08B204592B0130AC07FF302C07840027
:100698000A128A1128250A128A11B800003A031989
:1006A800D32B753A0319422B362B33088400831356
:1006B8000008B400840A0008B5000230AF002F0813
:1006C800B307B801B80A0530380603198C2B380867
:1006D800AF002F07013E84000A128A1128250A124A
:1006E8008A11B0000A128A1128250A128A11B1004B
:1006F80031083502031D822B30083402031C8C2B71
:100708000130AF002F08B80705303806031D6B2BE2
:100718003808AF002F08B600FF30AF002F08B60723
:10072800360A0319202B0A30A7000030A800360823
:10073800AF002F07013E84000A128A1128250A12E9
:100748008A11A0000A128A1128250A128A11A1000A
:100758003508A3003408A2000A128A11FF260A12DB
:100768008A11831203132108AA002008A9000A127B
:100778008A11B1270A128A11831203132708303EFF
:10078800B0003008B8003808AF00370884002F08D8
:10079800831380000130AF002F08B707902B37086C
:1007A8008400831380010800831203132E08B1000C
:1007B8002F08B2003008B3000310320D330DB40017
:1007C8003408B9003908031DF02B0030AB000030A5
:1007D800AC000030AD0008002B08B1002C08B200B6
:1007E8002D08B3000310320D330DB4003408BA00DD
:1007F8003A08031D062C0030AB000030AC00003076
:10080800AD0008000030B6000030B7000030B80076
:1008180089303A07B1003108B9022E08B1002F0813
:10082800B2003008B30010300310B30CB20CB10C96
:10083800FF3E031D182C3108B4003408BA002B08F9
:10084800B1002C08B2002D08B30010300310B30C0F
:10085800B20CB10CFF3E031D2A2C3108B400340839
:10086800BA068030B1003108BA05AF17FF30AE05BF
:10087800FF30AF050030B005AC17FF30AB05FF30D7
:10088800AC050030AD051830B1003108B5000130B5
:100898000310B60DB70DB80DFF3E031D4C2C2D08E7
:1008A8003002031D5D2C2C082F02031D5D2C2B0824
:1008B8002E02031C6A2C2B08AE022C08031C2C0FDA
:1008C800AF022D08031C2D0AB002361401300310A4
:1008D800AE0DAF0DB00DFF3E031D6B2C0130B50200
:1008E800031D4B2C3608A0003708A1003808A200C9
:1008F8003908B1003108A3003A08B2003208A40050
:100908000A128A119D25831203132008AB002108BF
:10091800AC002208AD000800831203134B08CF0077
:100928004C08D0004D08D1000310500D510DD200D5
:100938005208D8005808031DAA2C0030CE000030F9
:10094800CD000030CC000030CB0008004B08CF00B1
:100958004C08D0004D08D10017300310D10CD00C32
:10096800CF0CFF3E031DB12C4F08D2005208D30014
:10097800CC17FF30CB05FF30CC050030CD054B0838
:10098800D4004C08D5004D08D600D7018E30D802C7
:10099800D81FEC2C5808803A8F3E0318DC2C003006
:1009A800CE000030CD000030CC000030CB00080075
:1009B80001300310D70CD60CD50CD40CFF3E031D08
:1009C800DD2C0130CF004F08D8070319072DDC2C88
:1009D80018305802031C042D0030CE000030CD0022
:1009E8000030CC000030CB0008000130CF000310ED
:1009F800D40DD50DD60DD70DCF0BFB2C0130D80259
:100A08005808031DF92C53080319152DD409D509C5
:100A1800D609D709D40A0319D50A0319D60A03191E
:100A2800D70A5708CE005608CD005508CC00540800
:100A3800CB000800FF1B282D83137F18831700089D
:100A4800840A0319FF0A080005308A000408840A8A
:100A580082070034013400340A340034643400342A
:100A6800E83403341034273420344434723469347D
:100A78007034703469346E346734203461346734C8
:100A8800723469342034203400344C3449344634C8
:100A98004934203442346134733465346434203446
:100AA800573461347434653472340034203420345B
:100AB8002034573465347434203453346F346934F3
:100AC8006C34203420342034003420342034203452
:100AD800443472347934203453346F3469346C3488
:100AE80020342034203400342034443472347934AF
:100AF8002034203420342034203400345234483414
:100B08003A342534753425342534203400345434AB
:100B180065346D343A342534753443342034003424
:100B280048346934673468342034743465346D3437
:100B380000348312031323080319A72D2208210464
:100B48002004031DBA2D0030A0000030A1000030A1
:100B5800A20008000130A5002508A30701300310F2
:100B6800A20CA10CA00CFF3E031DB32DFE302205E4
:100B78000319D52DAE2D0130A5002508A307013096
:100B8800A007003003180130A10700300318013016
:100B9800A20701300310A20CA10CA00CFF3E031DFC
:100BA800CE2DFF3022050319E42DBF2D0130A302FD
:100BB80001300310A00DA10DA20DFF3E031DDD2D78
:100BC800A11BEA2D023023020318DA2D2318F22D77
:100BD800FF30A0057F30A105FF30A2050310A30C4C
:100BE8002308A500A601A70110300310A50DA60D26
:100BF800A70DFF3E031DF92D2508A0042608A10412
:100C08002708A204240803190800A21708000030C6
:100C18000A128A1552270A128A1182308312031384
:100C2800A300DD30A200A20B172EA30B172E033052
:100C38000A128A1588270A128A112130831203138F
:100C4800A3007530A200A20B272EA30B272E2C2E53
:100C580003300A128A1588270A128A11483083122B
:100C68000313A3006B30A200A20B382EA30B382E5F
:100C78003D2E03300A128A1588270A128A1102307B
:100C88000A128A1588270A128A1102300A128A154E
:100C980088270A128A1108300A128A1588270A1228
:100CA8008A1100300A128A1588270A128A110C3014
:100CB8000A128A1588270A128A1100300A128A1520
:100CC80088270A128A1106300A128A15882708000E
:100CD80083120313A5002503031D952E22087F3ECA
:100CE800A3002308A8002808A30004300310A30CBD
:100CF800FF3E031D7A2E2308A4002408A600280816
:100D08000F39A3002308A70026080A128A15882786
:100D18000A128A118312031327080A128A158827D0
:100D280008000230831203132506031D0800220859
:100D3800BF3EA3002308A8002808A300043003101E
:100D4800A30CFF3E031DA32E2308A4002408A6001D
:100D580028080F39A3002308A70026080A128A15B5
:100D680088270A128A118312031327080A128A1580
:100D78008827080083120313A801A901280823075C
:100D8800A6002408A5000318A50AA81BA50383121A
:100D980003132508A7002708FF00260884000A1265
:100DA8008A111E250A128A11003A03190800280818
:100DB8002307A6002408A5000318A50AA81BA50355
:100DC800831203132508A7002708FF0026088400BC
:100DD8000A128A111E250A128A110A128A11782704
:100DE8000A128A11013083120313A8070318A90AEB
:100DF8000030A907C22E83120313A501A6012008FB
:100E080021040319382FA401A40AA11B172F0130AC
:100E18000310A00DA10DFF3E031D0C2F0130F5009E
:100E28007508A407092F01300310A50DA60DFF3E74
:100E3800031D182F21082302031D242F2008220236
:100E4800031C2D2F2008A2022108031CA303A302C0
:100E5800251401300310A10CA00CFF3E031D2E2FFA
:100E68000130A402031D172F2608A1002508A000A1
:100E78000800F801083078020318080083120313E9
:100E8800061D422F3130F500F50B482F4B2F8312EA
:100E980003130619612F0130F5007803FF3A073E66
:100EA800013E582F0310F50DFF3E031D562F750800
:100EB800FF3AF6007608EA05732F0130F50078034B
:100EC800FF3A073E013E6A2F0310F50DFF3E031D52
:100ED800682F7508F6007608EA040619712F0130A4
:100EE800F5007508F8073E2F83120313A2002208A5
:100EF8000F39F6007608A0002208F039F6007608C7
:100F0800A10008152108F60004300310F60CFF3E76
:100F1800031D892F76080A128A1552270A128A1188
:100F28008312031388154230F600F60B992F000040
:100F380083120313881120080A128A1552270A12ED
:100F48008A118312031388154230F600F60BAA2F74
:100F58000000831203138811080083120313270863
:100F680028040319E02FAB01AB0AA81BC72F0130D7
:100F78000310A70DA80DFF3E031DBC2F0130F6007E
:100F88007608AB07B92F28082A02031DCD2F27089A
:100F98002902031CD52F2708A9022808031CAA0325
:100FA800AA0201300310A80CA70CFF3E031DD62F80
:100FB8000130AB02031DC72F2A08A8002908A70083
:100FC80008008316031306118312031306117530E4
:100FD800F600E130F500F50BEF2FF60BEF2F83123B
:100FE800031306153130F500F50BF82FFB2F831688
:060FF800031306150800BA
:101DE00064008001840A0406031900340406F12EFD
:101DF0008130831203139F00C030831603139F00AA
:101E0000080083120313981C072F181218168C1E33
:101E1000072F1A08080000300A128A1588270A12AC
:101E20008A1501300A128A1588270800F5008312E6
:101E300003130C1E172F75089900831603139818A7
:101E400008001D2F831203132808A0002908A100F1
:101E5000A2018E30F5007508A300A4010A128A11B0
:101E60009D25831203132008A8002108A900220839
:101E7000AA000800831603130713871781309900FF
:101E80001815181283120313981783160313981644
:101E9000831203131816831603138C16831203136D
:101EA0008C120800F500751C592F831203130816B5
:101EB0005C2F831203130812F51C602F8816612F04
:101EC0008812751D652F0817662F0813F51D6A2FD8
:101ED000881708008813080083120313EB014230AF
:101EE000F500F50B712F000083120313061908008B
:101EF0008530F500F50B7A2F83120313061D822F10
:101F0000EB01EB0A4230F500F50B842F00000800CE
:101F1000F60083120313081176080A128A15522755
:101F20000A128A158312031388151A3083120313B9
:101F3000A100F730A000A00B9B2FA10B9B2FA02F7F
:101F400083120313881108008C1EC22F8C120A12F0
:101F50008A1501270A128A15F0007008F700BA2FB7
:101F6000B52F831203130614B82F83120313061020
:101F70008610C22F7708303A0319B02F013A03199F
:101F8000B12FB52F740883120313FF0073088A0062
:101F900072088400710E8300FE0E7E0E090083120B
:101FA0000313A20008302202031CD92FF501F60109
:101FB0000800C530A00020089F052208A0000230BC
:101FC0000310A00DFF3E031DE02F0310200DA10004
:101FD00021089F040D3083120313A100FB30A000E1
:101FE000A00BF02FA10BF02F831203131F151F1945
:101FF000F72F1E08F600831603131E08F5000800CD
:02400E003A3F37
:00000001FF
