:100000000A128A11D52FFF1B0D2883137F1883171F
:100010000008840A0319FF0A08007F087F398A0054
:0A0020000408840A0319FF0A820095
:1006B0001A300A128A11812308007308F1007408A5
:1006C000F2000A128A111324080064008001840ACF
:1006D0000406031900340406662B813083120313C9
:1006E0009F00C030831603139F00080000300A12D9
:1006F0008A11DE230A128A1101300A128A11DE23BE
:100700000800F000831203130C1E822B700899005E
:100710008316031398180800882B7E088A007F0828
:1007200082008D230A128A118000840A04087D0643
:1007300003190034FF0A0319FE0A912B83160313D1
:1007400007138717813099001815181283120313A5
:1007500098178316031398168312031318160800AC
:100760007308F1007408F2000A128A1113240A12A5
:100770008A110D300A128A1181230A128A110A3055
:100780000A128A1181230800F000701CCB2B8312FF
:1007900003130816CE2B831203130812F01CD22B5E
:1007A0008816D32B8812701DD72B0817D82B081347
:1007B000F01DDC2B8817080088130800F300831253
:1007C0000313081173080A128A11C4230A128A112A
:1007D0008312031388151A30F200F830F100F10B80
:1007E000EF2BF20BEF2B000083120313881108008C
:1007F000F5000830F1008930F2000A128A11132442
:100800000A128A117508F1000030F2000A128A11EA
:1008100013240A128A111030F3008930F4000A12EE
:100820008A11B0230800720883120313FF007108B5
:1008300084000A128A1103200A128A11003A03194D
:100840000800720883120313FF00710884000A1263
:100850008A1103200A128A110A128A1181230A12AC
:100860008A110130F1070318F20A132C383431349D
:10087000313431343034303438343734373436343A
:1008800000340034003400340034003400340034C8
:100890000034003439343534363436343834353471
:1008A00036343234363433340034003400340034D7
:1008B000003400340034003400340034FE30F300DF
:1008C0008830F4000A128A11B0230A128A113330D8
:1008D000F700BB30F600DF30F500F50B6D2CF60BA2
:1008E0006D2CF70B6D2C742C1C30F3008830F40049
:1008F0000A128A11B0230A128A113330F700BB3072
:10090000F600DF30F500F50B832CF60B832CF70B8C
:10091000832C8A2C0800F600F430F1008830F200B5
:100920000A128A1113240A128A117608F100003083
:10093000F2000A128A1113240A128A11FC30F10003
:100940008830F2000A128A1113240A128A110D301B
:100950000A128A1181230A128A113330F500BB3042
:10096000F400DF30F300F30BB32CF40BB32CF50BD6
:10097000B32CBA2C0800F40008307402031CC32CFA
:10098000F001F1010800C530F20072088312031370
:100990009F057408F20002300310F20DFF3E031DA4
:1009A000CC2C0310720DF30073089F040D30F3007C
:1009B000FB30F200F20BDA2CF30BDA2CDF2C831273
:1009C00003131F151F19E22C1E08F10083160313D1
:1009D0001E08F0000800F40074080F39F1007108D7
:1009E000F2007408F039F1007108F3008312031368
:1009F00008157308F10004300310F10CFF3E031DCD
:100A0000FC2C71080A128A11C4230A128A1183125B
:100A1000031388154230F100F10B0C2D00008312F6
:100A20000313881172080A128A11C4230A128A1148
:100A30008312031388154230F100F10B1D2D0000C5
:100A40008312031388110800FA01FB017A08750765
:100A5000F8007608F7000318F70AFA1BF70377087F
:100A6000F900790883120313FF00780884000A1242
:100A70008A1103200A128A11003A031908007A0821
:100A80007507F8007608F7000318F70AFA1BF70352
:100A90007708F900790883120313FF0078088400AF
:100AA0000A128A1103200A128A110A128A11EB24EF
:100AB0000A128A110130FA070318FB0A0030FB07FB
:100AC000262DF7007703031D862D74087F3EF50061
:100AD0007508FA007A08F50004300310F50CFF3EA3
:100AE000031D6D2D7508F6007608F8007A080F3999
:100AF000F5007508F90078080A128A11DE230A1237
:100B00008A1179080A128A11DE230800023077065A
:100B1000031D08007408BF3EF5007508FA007A0846
:100B2000F50004300310F50CFF3E031D922D7508EF
:100B3000F6007608F8007A080F39F5007508F90014
:100B400078080A128A11DE230A128A1179080A1219
:100B50008A11DE23080000300A128A11C4230A1207
:100B60008A118230F500DD30F400F40BB52DF50B61
:100B7000B52DBA2D03300A128A11DE230A128A110A
:100B80002130F5007630F400F40BC42DF50BC42DA4
:100B9000000003300A128A11DE230A128A1148303B
:100BA000F5006C30F400F40BD32DF50BD32D0000C1
:100BB00003300A128A11DE230A128A1102300A1245
:100BC0008A11DE230A128A1102300A128A11DE23E8
:100BD0000A128A1108300A128A11DE230A128A11B7
:100BE00000300A128A11DE230A128A110C300A120E
:100BF0008A11DE230A128A1100300A128A11DE23BA
:100C00000A128A1106300A128A11DE23080083169E
:100C100003138801860183120313860183160313CD
:100C20000710831203130710FF3083160313850088
:100C30000A128A119E230A128A110A128A116D233E
:100C40000A128A110A128A11AB250A128A11F401BA
:100C5000F40A01300A128A1161250A128A11D6306B
:100C6000F5008830F6000A128A1124250A128A112A
:100C7000F401F40A02300A128A1161250A128A115B
:100C8000C730F5008830F6000A128A1124250A12AE
:100C90008A114D3083120313DC001930DB004F3012
:100CA000DA00DA0B512EDB0B512EDC0B512EF40146
:100CB000F40A02300A128A1161250A128A11E530FB
:100CC000F5008830F6000A128A1124250A128A11CA
:100CD0000A128A115E240A128A110A128A117623D4
:100CE0000A128A1100300A128A11BB240A128A11D0
:100CF000710883120313E0007008DF0001300A124C
:100D00008A11BB240A128A11710883120313DE00B0
:100D10007008DD000710F401F40A01300A128A118C
:100D200061250A128A115030F5008830F6000A1247
:100D30008A1124250A128A11F401F40A02300A12D7
:100D40008A1161250A128A116130F5008830F60097
:100D50000A128A1124250A128A1101308312031300
:100D60006002F43003195F020318E72E0714F40140
:100D7000F40A01300A128A1161250A128A117230AE
:100D8000F5008830F6000A128A1124250A128A1109
:100D9000F401F40A02300A128A1161250A128A113A
:100DA0003F30F5008830F6000A128A1124250A1215
:100DB0008A11333083120313DC00BB30DB00DF30D9
:100DC000DA00DA0BE12EDB0BE12EDC0BE12E013039
:100DD000831203135E02F53003195D02031C722EA9
:100DE00001306002F43003195F020318722EF4011F
:100DF000F40A01300A128A1161250A128A112E3072
:100E0000F5008830F6000A128A1124250A128A1188
:100E1000F401F40A02300A128A1161250A128A11B9
:100E2000A530F5008830F6000A128A1124250A122E
:100E30008A1134300A128A118B240A128A11F401A1
:100E4000F40A02300A128A1161250A128A119430BA
:100E5000F5008830F6000A128A1124250A128A1138
:100E60000030F3008830F4000A128A115D230A1260
:100E70008A110A128A1158230A128A11F401F40AFB
:100E800002300A128A1161250A128A118330F50094
:100E90008830F6000A128A1124250A128A1133308A
:100EA00083120313DC00BB30DB00DF30DA00DA0B27
:100EB000572FDB0B572FDC0B572FF401F40A0230AE
:100EC0000A128A1161250A128A11B630F50088309B
:100ED000F6000A128A1124250A128A1120300A12F9
:100EE0008A118B240A128A11F401F40A02300A12C0
:100EF0008A1161250A128A119430F5008830F600B3
:100F00000A128A1124250A128A110030F30088304F
:100F1000F4000A128A115D230A128A110A128A1138
:100F200058230A128A11F401F40A02300A128A11B3
:100F300061250A128A118330F5008830F6000A1202
:100F40008A1124250A128A11333083120313DC001C
:100F5000BB30DB00DF30DA00DA0BAC2FDB0BAC2F61
:100F6000DC0BAC2F34300A128A11F8230A128A11D2
:100F70007F3083120313DC00D430DB003130DA0021
:100F8000DA0BC02FDB0BC02FDC0BC02F7F3083129E
:100F90000313DC00D430DB003130DA00DA0BCE2F63
:100FA000DB0BCE2FDC0BCE2F722E83134830FD00CF
:100FB0000430FE003630FF00203084000A128A110F
:100FC00091230A128A11831790308400C2300A12CA
:100FD0008A1165230A128A118313A0308400D2304B
:100FE0000A128A1165230A128A11483084005A3085
:100FF0000A128A116523FC0183010A128A11072E45
:1010000046344C344F344F344434203441344C341F
:1010100045345234543420340D340A34503441347D
:1010200052344B3449344E34473420344C344F34EA
:101030005434203431340034413454342B34433468
:101040004E344D3449343D3432342C3432342C3423
:1010500030342C3430342C343034003420342034C8
:1010600046344C344F344F344434203441344C34BF
:101070004534523454342034203420340034203465
:10108000203420345734413452344E3449344E34B1
:1010900047342034213421342134203420340034A6
:1010A00020345034413452344B3449344E34473474
:1010B00020344C344F3454342034313420342034F0
:1010C00000342034443452345934203443344F34BF
:1010D0004E3444344934543449344F344E3420343B
:1010E00020340034203420345734413454344534CF
:1010F00052345934203446344C344F344F34523403
:10110000203420340034203420344D34653473349A
:1011100073346134673465342034733465346E3429
:10112000743420342034003420344D346534733426
:1011300073346134673465342034743479347034F2
:1011400069346E3467342034003445346E3474347A
:101150006534723469346E34673420346E347534D7
:101160006D346234653472343134003445346E3455
:1011700074346534723469346E34673420346E34B8
:1011800075346D3462346534723432340034203452
:10119000203449344E3420345034413452344B34AA
:1011A00049344E3447342034203400342034203441
:1011B00046344C344F344F344434203441344C346E
:1011C000453452345434203400344D34653473344F
:1011D0007334613467346534203473346534743463
:1011E0007534703420340034413454342B34433457
:1011F0004D34473453343D34223400344134543474
:101200002B3443344D34473446343D343134003488
:101210004134543444340034413454344834003478
:041220003B34003427
:02400E003A3F37
:00000001FF
